{
  "address": "0x47202b9Ef5F983fe311f344eDa48D75a7b3B3B76",
  "abi": [
    {
      "inputs": [
        {
          "internalType": "string",
          "name": "name",
          "type": "string"
        },
        {
          "internalType": "string",
          "name": "symbol",
          "type": "string"
        },
        {
          "internalType": "address",
          "name": "identityService",
          "type": "address"
        },
        {
          "internalType": "uint256",
          "name": "supplyCap",
          "type": "uint256"
        }
      ],
      "stateMutability": "nonpayable",
      "type": "constructor"
    },
    {
      "anonymous": false,
      "inputs": [
        {
          "indexed": true,
          "internalType": "bytes32",
          "name": "owner",
          "type": "bytes32"
        },
        {
          "indexed": true,
          "internalType": "bytes32",
          "name": "spender",
          "type": "bytes32"
        },
        {
          "indexed": false,
          "internalType": "uint256",
          "name": "value",
          "type": "uint256"
        }
      ],
      "name": "Approval",
      "type": "event"
    },
    {
      "anonymous": false,
      "inputs": [
        {
          "indexed": true,
          "internalType": "address",
          "name": "owner",
          "type": "address"
        },
        {
          "indexed": true,
          "internalType": "address",
          "name": "spender",
          "type": "address"
        },
        {
          "indexed": false,
          "internalType": "uint256",
          "name": "value",
          "type": "uint256"
        }
      ],
      "name": "Approval",
      "type": "event"
    },
    {
      "anonymous": false,
      "inputs": [
        {
          "indexed": true,
          "internalType": "bytes32",
          "name": "delegator",
          "type": "bytes32"
        },
        {
          "indexed": true,
          "internalType": "bytes32",
          "name": "fromDelegate",
          "type": "bytes32"
        },
        {
          "indexed": true,
          "internalType": "bytes32",
          "name": "toDelegate",
          "type": "bytes32"
        }
      ],
      "name": "DelegateChanged",
      "type": "event"
    },
    {
      "anonymous": false,
      "inputs": [
        {
          "indexed": true,
          "internalType": "address",
          "name": "delegator",
          "type": "address"
        },
        {
          "indexed": true,
          "internalType": "address",
          "name": "fromDelegate",
          "type": "address"
        },
        {
          "indexed": true,
          "internalType": "address",
          "name": "toDelegate",
          "type": "address"
        }
      ],
      "name": "DelegateChanged",
      "type": "event"
    },
    {
      "anonymous": false,
      "inputs": [
        {
          "indexed": true,
          "internalType": "bytes32",
          "name": "delegate",
          "type": "bytes32"
        },
        {
          "indexed": false,
          "internalType": "uint256",
          "name": "previousBalance",
          "type": "uint256"
        },
        {
          "indexed": false,
          "internalType": "uint256",
          "name": "newBalance",
          "type": "uint256"
        }
      ],
      "name": "DelegateVotesChanged",
      "type": "event"
    },
    {
      "anonymous": false,
      "inputs": [
        {
          "indexed": true,
          "internalType": "address",
          "name": "delegate",
          "type": "address"
        },
        {
          "indexed": false,
          "internalType": "uint256",
          "name": "previousBalance",
          "type": "uint256"
        },
        {
          "indexed": false,
          "internalType": "uint256",
          "name": "newBalance",
          "type": "uint256"
        }
      ],
      "name": "DelegateVotesChanged",
      "type": "event"
    },
    {
      "anonymous": false,
      "inputs": [
        {
          "indexed": true,
          "internalType": "address",
          "name": "previousOwner",
          "type": "address"
        },
        {
          "indexed": true,
          "internalType": "address",
          "name": "newOwner",
          "type": "address"
        }
      ],
      "name": "OwnershipTransferred",
      "type": "event"
    },
    {
      "anonymous": false,
      "inputs": [
        {
          "indexed": true,
          "internalType": "bytes32",
          "name": "from",
          "type": "bytes32"
        },
        {
          "indexed": true,
          "internalType": "bytes32",
          "name": "to",
          "type": "bytes32"
        },
        {
          "indexed": false,
          "internalType": "uint256",
          "name": "value",
          "type": "uint256"
        }
      ],
      "name": "Transfer",
      "type": "event"
    },
    {
      "anonymous": false,
      "inputs": [
        {
          "indexed": true,
          "internalType": "address",
          "name": "from",
          "type": "address"
        },
        {
          "indexed": true,
          "internalType": "address",
          "name": "to",
          "type": "address"
        },
        {
          "indexed": false,
          "internalType": "uint256",
          "name": "value",
          "type": "uint256"
        }
      ],
      "name": "Transfer",
      "type": "event"
    },
    {
      "inputs": [],
      "name": "ADDRESS_ZERO",
      "outputs": [
        {
          "internalType": "bytes32",
          "name": "",
          "type": "bytes32"
        }
      ],
      "stateMutability": "view",
      "type": "function"
    },
    {
      "inputs": [],
      "name": "DOMAIN_SEPARATOR",
      "outputs": [
        {
          "internalType": "bytes32",
          "name": "",
          "type": "bytes32"
        }
      ],
      "stateMutability": "view",
      "type": "function"
    },
    {
      "inputs": [
        {
          "internalType": "address",
          "name": "owner",
          "type": "address"
        },
        {
          "internalType": "address",
          "name": "spender",
          "type": "address"
        }
      ],
      "name": "allowance",
      "outputs": [
        {
          "internalType": "uint256",
          "name": "",
          "type": "uint256"
        }
      ],
      "stateMutability": "view",
      "type": "function"
    },
    {
      "inputs": [
        {
          "internalType": "bytes32",
          "name": "owner",
          "type": "bytes32"
        },
        {
          "internalType": "bytes32",
          "name": "spender",
          "type": "bytes32"
        }
      ],
      "name": "allowance",
      "outputs": [
        {
          "internalType": "uint256",
          "name": "",
          "type": "uint256"
        }
      ],
      "stateMutability": "view",
      "type": "function"
    },
    {
      "inputs": [
        {
          "internalType": "address",
          "name": "spender",
          "type": "address"
        },
        {
          "internalType": "uint256",
          "name": "amount",
          "type": "uint256"
        }
      ],
      "name": "approve",
      "outputs": [
        {
          "internalType": "bool",
          "name": "",
          "type": "bool"
        }
      ],
      "stateMutability": "nonpayable",
      "type": "function"
    },
    {
      "inputs": [
        {
          "internalType": "bytes32",
          "name": "owner",
          "type": "bytes32"
        },
        {
          "internalType": "bytes32",
          "name": "spender",
          "type": "bytes32"
        },
        {
          "internalType": "uint256",
          "name": "amount",
          "type": "uint256"
        }
      ],
      "name": "approve",
      "outputs": [
        {
          "internalType": "bool",
          "name": "",
          "type": "bool"
        }
      ],
      "stateMutability": "nonpayable",
      "type": "function"
    },
    {
      "inputs": [
        {
          "internalType": "bytes32",
          "name": "account",
          "type": "bytes32"
        }
      ],
      "name": "balanceOf",
      "outputs": [
        {
          "internalType": "uint256",
          "name": "",
          "type": "uint256"
        }
      ],
      "stateMutability": "view",
      "type": "function"
    },
    {
      "inputs": [
        {
          "internalType": "address",
          "name": "account",
          "type": "address"
        }
      ],
      "name": "balanceOf",
      "outputs": [
        {
          "internalType": "uint256",
          "name": "",
          "type": "uint256"
        }
      ],
      "stateMutability": "view",
      "type": "function"
    },
    {
      "inputs": [],
      "name": "cap",
      "outputs": [
        {
          "internalType": "uint256",
          "name": "",
          "type": "uint256"
        }
      ],
      "stateMutability": "view",
      "type": "function"
    },
    {
      "inputs": [
        {
          "internalType": "bytes32",
          "name": "account",
          "type": "bytes32"
        },
        {
          "internalType": "uint32",
          "name": "pos",
          "type": "uint32"
        }
      ],
      "name": "checkpoints",
      "outputs": [
        {
          "components": [
            {
              "internalType": "uint32",
              "name": "fromBlock",
              "type": "uint32"
            },
            {
              "internalType": "uint224",
              "name": "votes",
              "type": "uint224"
            }
          ],
          "internalType": "struct ERC20Votes.Checkpoint",
          "name": "",
          "type": "tuple"
        }
      ],
      "stateMutability": "view",
      "type": "function"
    },
    {
      "inputs": [],
      "name": "decimals",
      "outputs": [
        {
          "internalType": "uint8",
          "name": "",
          "type": "uint8"
        }
      ],
      "stateMutability": "view",
      "type": "function"
    },
    {
      "inputs": [
        {
          "internalType": "bytes32",
          "name": "owner",
          "type": "bytes32"
        },
        {
          "internalType": "bytes32",
          "name": "spender",
          "type": "bytes32"
        },
        {
          "internalType": "uint256",
          "name": "subtractedValue",
          "type": "uint256"
        }
      ],
      "name": "decreaseAllowance",
      "outputs": [
        {
          "internalType": "bool",
          "name": "",
          "type": "bool"
        }
      ],
      "stateMutability": "nonpayable",
      "type": "function"
    },
    {
      "inputs": [
        {
          "internalType": "address",
          "name": "spender",
          "type": "address"
        },
        {
          "internalType": "uint256",
          "name": "subtractedValue",
          "type": "uint256"
        }
      ],
      "name": "decreaseAllowance",
      "outputs": [
        {
          "internalType": "bool",
          "name": "",
          "type": "bool"
        }
      ],
      "stateMutability": "nonpayable",
      "type": "function"
    },
    {
      "inputs": [
        {
          "internalType": "address",
          "name": "delegatee",
          "type": "address"
        }
      ],
      "name": "delegate",
      "outputs": [],
      "stateMutability": "nonpayable",
      "type": "function"
    },
    {
      "inputs": [
        {
          "internalType": "bytes32",
          "name": "delegator",
          "type": "bytes32"
        },
        {
          "internalType": "bytes32",
          "name": "delegatee",
          "type": "bytes32"
        }
      ],
      "name": "delegate",
      "outputs": [],
      "stateMutability": "nonpayable",
      "type": "function"
    },
    {
      "inputs": [
        {
          "internalType": "bytes32",
          "name": "delegator",
          "type": "bytes32"
        },
        {
          "internalType": "bytes32",
          "name": "delegatee",
          "type": "bytes32"
        },
        {
          "internalType": "uint256",
          "name": "nonce",
          "type": "uint256"
        },
        {
          "internalType": "uint256",
          "name": "expiry",
          "type": "uint256"
        },
        {
          "internalType": "uint8",
          "name": "v",
          "type": "uint8"
        },
        {
          "internalType": "bytes32",
          "name": "r",
          "type": "bytes32"
        },
        {
          "internalType": "bytes32",
          "name": "s",
          "type": "bytes32"
        }
      ],
      "name": "delegateBySig",
      "outputs": [],
      "stateMutability": "nonpayable",
      "type": "function"
    },
    {
      "inputs": [
        {
          "internalType": "address",
          "name": "delegatee",
          "type": "address"
        },
        {
          "internalType": "uint256",
          "name": "nonce",
          "type": "uint256"
        },
        {
          "internalType": "uint256",
          "name": "expiry",
          "type": "uint256"
        },
        {
          "internalType": "uint8",
          "name": "v",
          "type": "uint8"
        },
        {
          "internalType": "bytes32",
          "name": "r",
          "type": "bytes32"
        },
        {
          "internalType": "bytes32",
          "name": "s",
          "type": "bytes32"
        }
      ],
      "name": "delegateBySig",
      "outputs": [],
      "stateMutability": "nonpayable",
      "type": "function"
    },
    {
      "inputs": [
        {
          "internalType": "address",
          "name": "account",
          "type": "address"
        }
      ],
      "name": "delegates",
      "outputs": [
        {
          "internalType": "address",
          "name": "",
          "type": "address"
        }
      ],
      "stateMutability": "view",
      "type": "function"
    },
    {
      "inputs": [
        {
          "internalType": "bytes32",
          "name": "account",
          "type": "bytes32"
        }
      ],
      "name": "delegates",
      "outputs": [
        {
          "internalType": "bytes32",
          "name": "",
          "type": "bytes32"
        }
      ],
      "stateMutability": "view",
      "type": "function"
    },
    {
      "inputs": [
        {
          "internalType": "uint256",
          "name": "blockNumber",
          "type": "uint256"
        }
      ],
      "name": "getPastTotalSupply",
      "outputs": [
        {
          "internalType": "uint256",
          "name": "",
          "type": "uint256"
        }
      ],
      "stateMutability": "view",
      "type": "function"
    },
    {
      "inputs": [
        {
          "internalType": "bytes32",
          "name": "account",
          "type": "bytes32"
        },
        {
          "internalType": "uint256",
          "name": "blockNumber",
          "type": "uint256"
        }
      ],
      "name": "getPastVotes",
      "outputs": [
        {
          "internalType": "uint256",
          "name": "",
          "type": "uint256"
        }
      ],
      "stateMutability": "view",
      "type": "function"
    },
    {
      "inputs": [
        {
          "internalType": "address",
          "name": "account",
          "type": "address"
        },
        {
          "internalType": "uint256",
          "name": "blockNumber",
          "type": "uint256"
        }
      ],
      "name": "getPastVotes",
      "outputs": [
        {
          "internalType": "uint256",
          "name": "",
          "type": "uint256"
        }
      ],
      "stateMutability": "view",
      "type": "function"
    },
    {
      "inputs": [
        {
          "internalType": "bytes32",
          "name": "account",
          "type": "bytes32"
        }
      ],
      "name": "getVotes",
      "outputs": [
        {
          "internalType": "uint256",
          "name": "",
          "type": "uint256"
        }
      ],
      "stateMutability": "view",
      "type": "function"
    },
    {
      "inputs": [
        {
          "internalType": "address",
          "name": "account",
          "type": "address"
        }
      ],
      "name": "getVotes",
      "outputs": [
        {
          "internalType": "uint256",
          "name": "",
          "type": "uint256"
        }
      ],
      "stateMutability": "view",
      "type": "function"
    },
    {
      "inputs": [
        {
          "internalType": "address",
          "name": "spender",
          "type": "address"
        },
        {
          "internalType": "uint256",
          "name": "addedValue",
          "type": "uint256"
        }
      ],
      "name": "increaseAllowance",
      "outputs": [
        {
          "internalType": "bool",
          "name": "",
          "type": "bool"
        }
      ],
      "stateMutability": "nonpayable",
      "type": "function"
    },
    {
      "inputs": [
        {
          "internalType": "bytes32",
          "name": "owner",
          "type": "bytes32"
        },
        {
          "internalType": "bytes32",
          "name": "spender",
          "type": "bytes32"
        },
        {
          "internalType": "uint256",
          "name": "addedValue",
          "type": "uint256"
        }
      ],
      "name": "increaseAllowance",
      "outputs": [
        {
          "internalType": "bool",
          "name": "",
          "type": "bool"
        }
      ],
      "stateMutability": "nonpayable",
      "type": "function"
    },
    {
      "inputs": [
        {
          "internalType": "bytes32",
          "name": "to",
          "type": "bytes32"
        },
        {
          "internalType": "uint256",
          "name": "amount",
          "type": "uint256"
        }
      ],
      "name": "mint",
      "outputs": [],
      "stateMutability": "nonpayable",
      "type": "function"
    },
    {
      "inputs": [],
      "name": "name",
      "outputs": [
        {
          "internalType": "string",
          "name": "",
          "type": "string"
        }
      ],
      "stateMutability": "view",
      "type": "function"
    },
    {
      "inputs": [],
      "name": "nameService",
      "outputs": [
        {
          "internalType": "contract IUniversalNameService",
          "name": "",
          "type": "address"
        }
      ],
      "stateMutability": "view",
      "type": "function"
    },
    {
      "inputs": [
        {
          "internalType": "address",
          "name": "owner",
          "type": "address"
        }
      ],
      "name": "nonces",
      "outputs": [
        {
          "internalType": "uint256",
          "name": "",
          "type": "uint256"
        }
      ],
      "stateMutability": "view",
      "type": "function"
    },
    {
      "inputs": [
        {
          "internalType": "bytes32",
          "name": "owner",
          "type": "bytes32"
        }
      ],
      "name": "nonces",
      "outputs": [
        {
          "internalType": "uint256",
          "name": "",
          "type": "uint256"
        }
      ],
      "stateMutability": "view",
      "type": "function"
    },
    {
      "inputs": [
        {
          "internalType": "bytes32",
          "name": "account",
          "type": "bytes32"
        }
      ],
      "name": "numCheckpoints",
      "outputs": [
        {
          "internalType": "uint32",
          "name": "",
          "type": "uint32"
        }
      ],
      "stateMutability": "view",
      "type": "function"
    },
    {
      "inputs": [],
      "name": "owner",
      "outputs": [
        {
          "internalType": "address",
          "name": "",
          "type": "address"
        }
      ],
      "stateMutability": "view",
      "type": "function"
    },
    {
      "inputs": [
        {
          "internalType": "bytes32",
          "name": "owner",
          "type": "bytes32"
        },
        {
          "internalType": "bytes32",
          "name": "spender",
          "type": "bytes32"
        },
        {
          "internalType": "uint256",
          "name": "value",
          "type": "uint256"
        },
        {
          "internalType": "uint256",
          "name": "deadline",
          "type": "uint256"
        },
        {
          "internalType": "uint8",
          "name": "v",
          "type": "uint8"
        },
        {
          "internalType": "bytes32",
          "name": "r",
          "type": "bytes32"
        },
        {
          "internalType": "bytes32",
          "name": "s",
          "type": "bytes32"
        }
      ],
      "name": "permit",
      "outputs": [],
      "stateMutability": "nonpayable",
      "type": "function"
    },
    {
      "inputs": [
        {
          "internalType": "address",
          "name": "owner",
          "type": "address"
        },
        {
          "internalType": "address",
          "name": "spender",
          "type": "address"
        },
        {
          "internalType": "uint256",
          "name": "value",
          "type": "uint256"
        },
        {
          "internalType": "uint256",
          "name": "deadline",
          "type": "uint256"
        },
        {
          "internalType": "uint8",
          "name": "v",
          "type": "uint8"
        },
        {
          "internalType": "bytes32",
          "name": "r",
          "type": "bytes32"
        },
        {
          "internalType": "bytes32",
          "name": "s",
          "type": "bytes32"
        }
      ],
      "name": "permit",
      "outputs": [],
      "stateMutability": "nonpayable",
      "type": "function"
    },
    {
      "inputs": [],
      "name": "renounceOwnership",
      "outputs": [],
      "stateMutability": "nonpayable",
      "type": "function"
    },
    {
      "inputs": [],
      "name": "symbol",
      "outputs": [
        {
          "internalType": "string",
          "name": "",
          "type": "string"
        }
      ],
      "stateMutability": "view",
      "type": "function"
    },
    {
      "inputs": [],
      "name": "totalSupply",
      "outputs": [
        {
          "internalType": "uint256",
          "name": "",
          "type": "uint256"
        }
      ],
      "stateMutability": "view",
      "type": "function"
    },
    {
      "inputs": [
        {
          "internalType": "address",
          "name": "to",
          "type": "address"
        },
        {
          "internalType": "uint256",
          "name": "amount",
          "type": "uint256"
        }
      ],
      "name": "transfer",
      "outputs": [
        {
          "internalType": "bool",
          "name": "",
          "type": "bool"
        }
      ],
      "stateMutability": "nonpayable",
      "type": "function"
    },
    {
      "inputs": [
        {
          "internalType": "bytes32",
          "name": "from",
          "type": "bytes32"
        },
        {
          "internalType": "bytes32",
          "name": "to",
          "type": "bytes32"
        },
        {
          "internalType": "uint256",
          "name": "amount",
          "type": "uint256"
        }
      ],
      "name": "transfer",
      "outputs": [
        {
          "internalType": "bool",
          "name": "",
          "type": "bool"
        }
      ],
      "stateMutability": "nonpayable",
      "type": "function"
    },
    {
      "inputs": [
        {
          "internalType": "address",
          "name": "from",
          "type": "address"
        },
        {
          "internalType": "address",
          "name": "to",
          "type": "address"
        },
        {
          "internalType": "uint256",
          "name": "amount",
          "type": "uint256"
        }
      ],
      "name": "transferFrom",
      "outputs": [
        {
          "internalType": "bool",
          "name": "",
          "type": "bool"
        }
      ],
      "stateMutability": "nonpayable",
      "type": "function"
    },
    {
      "inputs": [
        {
          "internalType": "bytes32",
          "name": "operator",
          "type": "bytes32"
        },
        {
          "internalType": "bytes32",
          "name": "from",
          "type": "bytes32"
        },
        {
          "internalType": "bytes32",
          "name": "to",
          "type": "bytes32"
        },
        {
          "internalType": "uint256",
          "name": "amount",
          "type": "uint256"
        }
      ],
      "name": "transferFrom",
      "outputs": [
        {
          "internalType": "bool",
          "name": "",
          "type": "bool"
        }
      ],
      "stateMutability": "nonpayable",
      "type": "function"
    },
    {
      "inputs": [
        {
          "internalType": "address",
          "name": "newOwner",
          "type": "address"
        }
      ],
      "name": "transferOwnership",
      "outputs": [],
      "stateMutability": "nonpayable",
      "type": "function"
    }
  ],
  "transactionHash": "0xdaf7dcefec5c84136ece511c183b012fb6c6b5339b4a9c0307907fbf71f5db61",
  "args": [
    "Bridge23",
    "B23",
    "0xd4Bc04938b2e02c6083342FE966851e0F6Bc4217",
    "10000000000000000000000000"
  ],
  "numDeployments": 2,
  "solcInputHash": "23ae3792775fb75ceaf81cdd143a7264",
  "bytecode": "0x6101806040523480156200001257600080fd5b50604051620030e7380380620030e7833981016040819052620000359162000347565b8380604051806040016040528060018152602001603160f81b8152508387878782600390805190602001906200006d929190620001ee565b50815162000083906004906020850190620001ee565b5060601b6001600160601b03191660805250819050620000e95760405162461bcd60e51b815260206004820152601560248201527f45524332304361707065643a2063617020697320300000000000000000000000604482015260640160405180910390fd5b60a090815282516020938401208251928401929092206101208390526101408190524660e0819052604080517f8b73c3c69bb8fe3d512ecc4cf759cc79239f7b179b0ffacaa9a75d522b39400f818801819052818301969096526060818101949094526080810192909252308285018190528151808403909501855260c0928301909152835193909501929092209091529190911b61010052610160525062000192336200019c565b5050505062000429565b600980546001600160a01b038381166001600160a01b0319831681179093556040519116919082907f8be0079c531659141344cd1fd0a4f28419497f9722a3daafe3b4186f6b6457e090600090a35050565b828054620001fc90620003d6565b90600052602060002090601f0160209004810192826200022057600085556200026b565b82601f106200023b57805160ff19168380011785556200026b565b828001600101855582156200026b579182015b828111156200026b5782518255916020019190600101906200024e565b50620002799291506200027d565b5090565b5b808211156200027957600081556001016200027e565b600082601f830112620002a5578081fd5b81516001600160401b0380821115620002c257620002c262000413565b604051601f8301601f19908116603f01168101908282118183101715620002ed57620002ed62000413565b8160405283815260209250868385880101111562000309578485fd5b8491505b838210156200032c57858201830151818301840152908201906200030d565b838211156200033d57848385830101525b9695505050505050565b600080600080608085870312156200035d578384fd5b84516001600160401b038082111562000374578586fd5b620003828883890162000294565b9550602087015191508082111562000398578485fd5b50620003a78782880162000294565b604087015190945090506001600160a01b0381168114620003c6578283fd5b6060959095015193969295505050565b600181811c90821680620003eb57607f821691505b602082108114156200040d57634e487b7160e01b600052602260045260246000fd5b50919050565b634e487b7160e01b600052604160045260246000fd5b60805160601c60a05160c05160e0516101005160601c610120516101405161016051612c28620004bf6000396000611bbf01526000611c0e01526000611be901526000611b4201526000611b6c01526000611b96015260006106ef015260008181610795015281816107c401528181610b1901528181610cc4015281816112ce015281816113a101526114ce0152612c286000f3fe608060405234801561001057600080fd5b50600436106101f85760003560e01c806226668d146101fd57806306fdde031461022a578063095ea7b31461023f57806318160ddd146102625780631ff86a361461027457806323b872dd14610287578063313ce5671461029a578063355274ea146102a95780633644e515146102b157806339509351146102b95780633a46b1a8146102cc5780633e6326fc146102df5780634641fd2d146102f45780634c05110014610307578063587cde1e1461031a5780635c19a95c1461032d57806366e79509146103425780636c7f15421461035757806370a0823114610377578063715018a61461038a5780637ecebe00146103925780638b0a59c1146103a55780638d9015ec146103e25780638da5cb5b146103f55780638e539e8c146103fd57806395d89b41146104105780639ab24eb0146104185780639e317f121461042b578063a457c2d71461043e578063a9059cbb14610451578063ae9f75e314610464578063c13f4cd914610477578063c3cda5201461048a578063cecce14e1461049d578063d2b15210146104b0578063d505accf146104c3578063db66e5d3146104d6578063dc69fc8a146104e9578063dd62ed3e146104fc578063e0081b8c1461050f578063e1856ff414610522578063f2a9a8c714610535578063f2fde38b14610548575b600080fd5b61021061020b3660046127a6565b61055b565b60405163ffffffff90911681526020015b60405180910390f35b610232610579565b60405161022191906128d1565b61025261024d366004612702565b61060b565b6040519015158152602001610221565b6002545b604051908152602001610221565b6102666102823660046127be565b61063c565b610252610295366004612655565b610685565b60405160128152602001610221565b6102666106ed565b610266610711565b6102526102c7366004612702565b610720565b6102666102da366004612702565b610776565b6102e7610793565b60405161022191906128a6565b610252610302366004612810565b6107b7565b6102666103153660046127a6565b6108bb565b6102e76103283660046125e5565b61093b565b61034061033b3660046125e5565b6109da565b005b610266600080516020612b9383398151915281565b6102666103653660046127a6565b60009081526020819052604090205490565b6102666103853660046125e5565b610a02565b610340610a2f565b6102666103a03660046125e5565b610a6a565b6103b86103b336600461287a565b610a81565b60408051825163ffffffff1681526020928301516001600160e01b03169281019290925201610221565b6103406103f03660046127be565b610b08565b6102e7610bd3565b61026661040b3660046127a6565b610be2565b610232610c0e565b6102666104263660046125e5565b610c1d565b6102666104393660046127a6565b610c34565b61025261044c366004612702565b610c48565b61025261045f366004612702565b610ca8565b610252610472366004612810565b610cb7565b61034061048536600461283b565b610d7f565b61034061049836600461272d565b610f37565b6102666104ab3660046127a6565b61100c565b6103406104be36600461283b565b61101e565b6103406104d1366004612695565b6111a2565b6102526104e43660046127df565b6112c1565b6102526104f7366004612810565b611394565b61026661050a36600461261d565b611470565b61025261051d366004612810565b6114c1565b6103406105303660046127be565b611589565b6102666105433660046127be565b6115c2565b6103406105563660046125e5565b6115df565b6000818152600760205260408120546105739061167f565b92915050565b60606003805461058890612b32565b80601f01602080910402602001604051908101604052809291908181526020018280546105b490612b32565b80156106015780601f106105d657610100808354040283529160200191610601565b820191906000526020600020905b8154815290600101906020018083116105e457829003601f168201915b5050505050905090565b60003361063261061a826116e8565b61062c866001600160a01b03166116e8565b85611718565b5060019392505050565b60004382106106665760405162461bcd60e51b815260040161065d90612924565b60405180910390fd5b600083815260076020526040902061067e9083611841565b9392505050565b6000336106b561069d6001600160a01b0387166116e8565b6106af836001600160a01b03166116e8565b85611919565b6106e26106ca866001600160a01b03166116e8565b6106dc866001600160a01b03166116e8565b85611993565b506001949350505050565b7f000000000000000000000000000000000000000000000000000000000000000090565b600061071b611b35565b905090565b6000338161072d826116e8565b90506000610743866001600160a01b03166116e8565b905060008561075284846115c2565b61075c9190612ae3565b9050610769838383611718565b5060019695505050505050565b600061067e61078d846001600160a01b03166116e8565b8361063c565b7f000000000000000000000000000000000000000000000000000000000000000090565b6000836001600160a01b037f00000000000000000000000000000000000000000000000000000000000000001663be98d55a82336040518363ffffffff1660e01b81526004016108089291906128ba565b60206040518083038186803b15801561082057600080fd5b505afa158015610834573d6000803e3d6000fd5b505050506040513d601f19601f820116820180604052508101906108589190612786565b6108745760405162461bcd60e51b815260040161065d906129c5565b600061088086866115c2565b9050838110156108a25760405162461bcd60e51b815260040161065d90612a9e565b6108af8686868403611718565b50600195945050505050565b60008181526007602052604081205480156109285760008381526007602052604090206108e9600183612b1b565b8154811061090757634e487b7160e01b600052603260045260246000fd5b600091825260209091200154600160201b90046001600160e01b031661092b565b60005b6001600160e01b03169392505050565b6000806109536104ab846001600160a01b03166116e8565b905061095d610793565b6001600160a01b03166302571be3826040518263ffffffff1660e01b815260040161098a91815260200190565b60206040518083038186803b1580156109a257600080fd5b505afa1580156109b6573d6000803e3d6000fd5b505050506040513d601f19601f8201168201806040525081019061067e9190612601565b336109fe6109e7826116e8565b6109f9846001600160a01b03166116e8565b611c5c565b5050565b6000806000610a19846001600160a01b03166116e8565b8152602001908152602001600020549050919050565b33610a38610bd3565b6001600160a01b031614610a5e5760405162461bcd60e51b815260040161065d90612a69565b610a686000611cbb565b565b6000610573610439836001600160a01b03166116e8565b60408051808201909152600080825260208201526000838152600760205260409020805463ffffffff8416908110610ac957634e487b7160e01b600052603260045260246000fd5b60009182526020918290206040805180820190915291015463ffffffff81168252600160201b90046001600160e01b0316918101919091529392505050565b604051635f4c6aad60e11b815282907f00000000000000000000000000000000000000000000000000000000000000006001600160a01b03169063be98d55a90610b5890849033906004016128ba565b60206040518083038186803b158015610b7057600080fd5b505afa158015610b84573d6000803e3d6000fd5b505050506040513d601f19601f82011682018060405250810190610ba89190612786565b610bc45760405162461bcd60e51b815260040161065d906129c5565b610bce8383611c5c565b505050565b6009546001600160a01b031690565b6000438210610c035760405162461bcd60e51b815260040161065d90612924565b610573600883611841565b60606004805461058890612b32565b6000610573610315836001600160a01b03166116e8565b600081815260056020526040812054610573565b60003381610c55826116e8565b90506000610c6b866001600160a01b03166116e8565b90506000610c7983836115c2565b905085811015610c9b5760405162461bcd60e51b815260040161065d90612a9e565b6107698383888403611718565b6000336106326106ca826116e8565b6000836001600160a01b037f00000000000000000000000000000000000000000000000000000000000000001663be98d55a82336040518363ffffffff1660e01b8152600401610d089291906128ba565b60206040518083038186803b158015610d2057600080fd5b505afa158015610d34573d6000803e3d6000fd5b505050506040513d601f19601f82011682018060405250810190610d589190612786565b610d745760405162461bcd60e51b815260040161065d906129c5565b6106e2858585611993565b83421115610d9f5760405162461bcd60e51b815260040161065d9061295b565b604080517f34266ba5d9886a1aa6730fe2a80b0ac458fd83adf18f276f8b17466fd1fc160a60208201529081018790526060810186905260808101859052600090610e0f90610e079060a0015b60405160208183030381529060405280519060200120611d0d565b858585611d5b565b9050610e1a81611d83565b8614610e385760405162461bcd60e51b815260040161065d90612992565b6000610e42610793565b6001600160a01b03166302571be38a6040518263ffffffff1660e01b8152600401610e6f91815260200190565b60206040518083038186803b158015610e8757600080fd5b505afa158015610e9b573d6000803e3d6000fd5b505050506040513d601f19601f82011682018060405250810190610ebf9190612601565b9050806001600160a01b0316826001600160a01b031614610f225760405162461bcd60e51b815260206004820152601d60248201527f4552433230566f7465733a20696e76616c6964207369676e6174757265000000604482015260640161065d565b610f2c8989611c5c565b505050505050505050565b83421115610f575760405162461bcd60e51b815260040161065d9061295b565b604080517fe48329057bfd03d55e49b547132e39cffd9c1820ad7b9d4c5307691425d15adf60208201526001600160a01b038816918101919091526060810186905260808101859052600090610fb390610e079060a001610dec565b9050610fbe81611d83565b8614610fdc5760405162461bcd60e51b815260040161065d90612992565b611003610ff1826001600160a01b03166116e8565b6109f9896001600160a01b03166116e8565b50505050505050565b60009081526006602052604090205490565b8342111561103e5760405162461bcd60e51b815260040161065d906129fb565b60007ffb1223e5cb1575d94e632523d1af07b548e31a4110846225d21e52ce554a3d4f88888861106d8c611d9a565b6040805160208101969096528501939093526060840191909152608083015260a082015260c0810186905260e00160405160208183030381529060405280519060200120905060006110be82611d0d565b905060006110ce82878787611d5b565b905060006110da610793565b6001600160a01b03166302571be38c6040518263ffffffff1660e01b815260040161110791815260200190565b60206040518083038186803b15801561111f57600080fd5b505afa158015611133573d6000803e3d6000fd5b505050506040513d601f19601f820116820180604052508101906111579190612601565b9050806001600160a01b0316826001600160a01b03161461118a5760405162461bcd60e51b815260040161065d90612a32565b6111958b8b8b611718565b5050505050505050505050565b834211156111c25760405162461bcd60e51b815260040161065d906129fb565b60006111d6886001600160a01b03166116e8565b905060007f6e71edae12b1b97f4d1f60370fef10105fa2faae0126114a169c64845d6126c989898961120786611d9a565b6040805160208101969096526001600160a01b0394851690860152929091166060840152608083015260a082015260c0810187905260e001604051602081830303815290604052805190602001209050600061126282611d0d565b9050600061127282888888611d5b565b90508a6001600160a01b0316816001600160a01b0316146112a55760405162461bcd60e51b815260040161065d90612a32565b611195846112bb8c6001600160a01b03166116e8565b8b611718565b6000846001600160a01b037f00000000000000000000000000000000000000000000000000000000000000001663be98d55a82336040518363ffffffff1660e01b81526004016113129291906128ba565b60206040518083038186803b15801561132a57600080fd5b505afa15801561133e573d6000803e3d6000fd5b505050506040513d601f19601f820116820180604052508101906113629190612786565b61137e5760405162461bcd60e51b815260040161065d906129c5565b611389858785611919565b6108af858585611993565b6000836001600160a01b037f00000000000000000000000000000000000000000000000000000000000000001663be98d55a82336040518363ffffffff1660e01b81526004016113e59291906128ba565b60206040518083038186803b1580156113fd57600080fd5b505afa158015611411573d6000803e3d6000fd5b505050506040513d601f19601f820116820180604052508101906114359190612786565b6114515760405162461bcd60e51b815260040161065d906129c5565b6106e285858561146189896115c2565b61146b9190612ae3565b611718565b600060016000611488856001600160a01b03166116e8565b815260200190815260200160002060006114aa846001600160a01b03166116e8565b815260200190815260200160002054905092915050565b6000836001600160a01b037f00000000000000000000000000000000000000000000000000000000000000001663be98d55a82336040518363ffffffff1660e01b81526004016115129291906128ba565b60206040518083038186803b15801561152a57600080fd5b505afa15801561153e573d6000803e3d6000fd5b505050506040513d601f19601f820116820180604052508101906115629190612786565b61157e5760405162461bcd60e51b815260040161065d906129c5565b6106e2858585611718565b33611592610bd3565b6001600160a01b0316146115b85760405162461bcd60e51b815260040161065d90612a69565b6109fe8282611db8565b600091825260016020908152604080842092845291905290205490565b336115e8610bd3565b6001600160a01b03161461160e5760405162461bcd60e51b815260040161065d90612a69565b6001600160a01b0381166116735760405162461bcd60e51b815260206004820152602660248201527f4f776e61626c653a206e6577206f776e657220697320746865207a65726f206160448201526564647265737360d01b606482015260840161065d565b61167c81611cbb565b50565b600063ffffffff8211156116e45760405162461bcd60e51b815260206004820152602660248201527f53616665436173743a2076616c756520646f65736e27742066697420696e203360448201526532206269747360d01b606482015260840161065d565b5090565b6000816040516020016116fb91906128a6565b604051602081830303815290604052805190602001209050919050565b600080516020612b938339815191528314156117825760405162461bcd60e51b8152602060048201526024808201527f45524332303a20617070726f76652066726f6d20746865207a65726f206164646044820152637265737360e01b606482015260840161065d565b600080516020612b938339815191528214156117eb5760405162461bcd60e51b815260206004820152602260248201527f45524332303a20617070726f766520746f20746865207a65726f206164647265604482015261737360f01b606482015260840161065d565b60008381526001602090815260408083208584528252918290208390559051828152839185917ff6d2c55c8d7458b3b22f5534fd41ebe91e2a7da94922c17c1fe9e4d209dca04a910160405180910390a3505050565b8154600090815b818110156118b357600061185c8284611dc2565b90508486828154811061187f57634e487b7160e01b600052603260045260246000fd5b60009182526020909120015463ffffffff16111561189f578092506118ad565b6118aa816001612ae3565b91505b50611848565b811561190457846118c5600184612b1b565b815481106118e357634e487b7160e01b600052603260045260246000fd5b600091825260209091200154600160201b90046001600160e01b0316611907565b60005b6001600160e01b031695945050505050565b600061192584846115c2565b9050600019811461198d57818110156119805760405162461bcd60e51b815260206004820152601d60248201527f45524332303a20696e73756666696369656e7420616c6c6f77616e6365000000604482015260640161065d565b61198d8484848403611718565b50505050565b600080516020612b938339815191528314156119ff5760405162461bcd60e51b815260206004820152602560248201527f45524332303a207472616e736665722066726f6d20746865207a65726f206164604482015264647265737360d81b606482015260840161065d565b600080516020612b93833981519152821415611a695760405162461bcd60e51b815260206004820152602360248201527f45524332303a207472616e7366657220746f20746865207a65726f206164647260448201526265737360e81b606482015260840161065d565b60008381526020819052604090205481811015611ad75760405162461bcd60e51b815260206004820152602660248201527f45524332303a207472616e7366657220616d6f756e7420657863656564732062604482015265616c616e636560d01b606482015260840161065d565b600084815260208190526040808220848403905584825281208054849290611b00908490612ae3565b909155505060405182815283908590600080516020612bd38339815191529060200160405180910390a361198d848484611ddd565b6000306001600160a01b037f000000000000000000000000000000000000000000000000000000000000000016148015611b8e57507f000000000000000000000000000000000000000000000000000000000000000046145b15611bb857507f000000000000000000000000000000000000000000000000000000000000000090565b50604080517f00000000000000000000000000000000000000000000000000000000000000006020808301919091527f0000000000000000000000000000000000000000000000000000000000000000828401527f000000000000000000000000000000000000000000000000000000000000000060608301524660808301523060a0808401919091528351808403909101815260c0909201909252805191012090565b6000611c678361100c565b60008481526020818152604080832054600690925280832086905551929350918491849187917f209796122531f82b7611ec866c6dbd42149c9e51fe94a4eaa48e6dafb73492e991a461198d828483611de8565b600980546001600160a01b038381166001600160a01b0319831681179093556040519116919082907f8be0079c531659141344cd1fd0a4f28419497f9722a3daafe3b4186f6b6457e090600090a35050565b6000610573611d1a611b35565b8360405161190160f01b6020820152602281018390526042810182905260009060620160405160208183030381529060405280519060200120905092915050565b6000806000611d6c87878787611ed5565b91509150611d7981611fb8565b5095945050505050565b6000610573611d9a836001600160a01b03166116e8565b60008181526005602052604090208054600181018255905b50919050565b6109fe82826121b4565b6000611dd16002848418612afb565b61067e90848416612ae3565b610bce83838361223e565b818314158015611df85750600081115b15610bce57600080516020612b938339815191528314611e675760008381526007602052604081208190611e2f9061225985612265565b9150915084600080516020612bb38339815191528383604051611e5c929190918252602082015260400190565b60405180910390a250505b600080516020612b938339815191528214610bce5760008281526007602052604081208190611e999061240685612265565b9150915083600080516020612bb38339815191528383604051611ec6929190918252602082015260400190565b60405180910390a25050505050565b6000806fa2a8918ca85bafe22016d0b997e4df60600160ff1b03831115611f025750600090506003611faf565b8460ff16601b14158015611f1a57508460ff16601c14155b15611f2b5750600090506004611faf565b6040805160008082526020820180845289905260ff881692820192909252606081018690526080810185905260019060a0016020604051602081039080840390855afa158015611f7f573d6000803e3d6000fd5b5050604051601f1901519150506001600160a01b038116611fa857600060019250925050611faf565b9150600090505b94509492505050565b6000816004811115611fda57634e487b7160e01b600052602160045260246000fd5b1415611fe35750565b600181600481111561200557634e487b7160e01b600052602160045260246000fd5b141561204e5760405162461bcd60e51b815260206004820152601860248201527745434453413a20696e76616c6964207369676e617475726560401b604482015260640161065d565b600281600481111561207057634e487b7160e01b600052602160045260246000fd5b14156120be5760405162461bcd60e51b815260206004820152601f60248201527f45434453413a20696e76616c6964207369676e6174757265206c656e67746800604482015260640161065d565b60038160048111156120e057634e487b7160e01b600052602160045260246000fd5b14156121395760405162461bcd60e51b815260206004820152602260248201527f45434453413a20696e76616c6964207369676e6174757265202773272076616c604482015261756560f01b606482015260840161065d565b600481600481111561215b57634e487b7160e01b600052602160045260246000fd5b141561167c5760405162461bcd60e51b815260206004820152602260248201527f45434453413a20696e76616c6964207369676e6174757265202776272076616c604482015261756560f01b606482015260840161065d565b6121be8282612412565b6002546001600160e01b0310156122305760405162461bcd60e51b815260206004820152603060248201527f4552433230566f7465733a20746f74616c20737570706c79207269736b73206f60448201526f766572666c6f77696e6720766f74657360801b606482015260840161065d565b61198d600861240683612265565b610bce61224a8461100c565b6122538461100c565b83611de8565b600061067e8284612b1b565b8254600090819080156122bd578561227e600183612b1b565b8154811061229c57634e487b7160e01b600052603260045260246000fd5b600091825260209091200154600160201b90046001600160e01b03166122c0565b60005b6001600160e01b031692506122d983858763ffffffff16565b9150600081118015612325575043866122f3600184612b1b565b8154811061231157634e487b7160e01b600052603260045260246000fd5b60009182526020909120015463ffffffff16145b156123935761233382612482565b8661233f600184612b1b565b8154811061235d57634e487b7160e01b600052603260045260246000fd5b9060005260206000200160000160046101000a8154816001600160e01b0302191690836001600160e01b031602179055506123fd565b8560405180604001604052806123a84361167f565b63ffffffff1681526020016123bc85612482565b6001600160e01b039081169091528254600181018455600093845260209384902083519490930151909116600160201b0263ffffffff909316929092179101555b50935093915050565b600061067e8284612ae3565b61241a6106ed565b8161242460025490565b61242e9190612ae3565b11156124785760405162461bcd60e51b8152602060048201526019602482015278115490cc8c10d85c1c19590e8818d85c08195e18d959591959603a1b604482015260640161065d565b6109fe82826124eb565b60006001600160e01b038211156116e45760405162461bcd60e51b815260206004820152602760248201527f53616665436173743a2076616c756520646f65736e27742066697420696e20326044820152663234206269747360c81b606482015260840161065d565b600080516020612b938339815191528214156125495760405162461bcd60e51b815260206004820152601f60248201527f45524332303a206d696e7420746f20746865207a65726f206164647265737300604482015260640161065d565b806002600082825461255b9190612ae3565b90915550506000828152602081905260408120805483929061257e908490612ae3565b90915550506040518181528290600080516020612b9383398151915290600080516020612bd38339815191529060200160405180910390a36109fe600080516020612b938339815191528383611ddd565b803560ff811681146125e057600080fd5b919050565b6000602082840312156125f6578081fd5b813561067e81612b7d565b600060208284031215612612578081fd5b815161067e81612b7d565b6000806040838503121561262f578081fd5b823561263a81612b7d565b9150602083013561264a81612b7d565b809150509250929050565b600080600060608486031215612669578081fd5b833561267481612b7d565b9250602084013561268481612b7d565b929592945050506040919091013590565b600080600080600080600060e0888a0312156126af578283fd5b87356126ba81612b7d565b965060208801356126ca81612b7d565b955060408801359450606088013593506126e6608089016125cf565b925060a0880135915060c0880135905092959891949750929550565b60008060408385031215612714578182fd5b823561271f81612b7d565b946020939093013593505050565b60008060008060008060c08789031215612745578182fd5b863561275081612b7d565b9550602087013594506040870135935061276c606088016125cf565b92506080870135915060a087013590509295509295509295565b600060208284031215612797578081fd5b8151801515811461067e578182fd5b6000602082840312156127b7578081fd5b5035919050565b600080604083850312156127d0578182fd5b50508035926020909101359150565b600080600080608085870312156127f4578384fd5b5050823594602084013594506040840135936060013592509050565b600080600060608486031215612824578283fd5b505081359360208301359350604090920135919050565b600080600080600080600060e0888a031215612855578081fd5b873596506020880135955060408801359450606088013593506126e6608089016125cf565b6000806040838503121561288c578182fd5b82359150602083013563ffffffff8116811461264a578182fd5b6001600160a01b0391909116815260200190565b9182526001600160a01b0316602082015260400190565b6000602080835283518082850152825b818110156128fd578581018301518582016040015282016128e1565b8181111561290e5783604083870101525b50601f01601f1916929092016040019392505050565b6020808252601f908201527f4552433230566f7465733a20626c6f636b206e6f7420796574206d696e656400604082015260600190565b6020808252601d908201527f4552433230566f7465733a207369676e61747572652065787069726564000000604082015260600190565b6020808252601990820152784552433230566f7465733a20696e76616c6964206e6f6e636560381b604082015260600190565b6020808252601c908201527b22a92199181d103ab730baba3437b934bd32b21037b832b930ba37b960211b604082015260600190565b6020808252601d908201527f45524332305065726d69743a206578706972656420646561646c696e65000000604082015260600190565b6020808252601e908201527f45524332305065726d69743a20696e76616c6964207369676e61747572650000604082015260600190565b6020808252818101527f4f776e61626c653a2063616c6c6572206973206e6f7420746865206f776e6572604082015260600190565b60208082526025908201527f45524332303a2064656372656173656420616c6c6f77616e63652062656c6f77604082015264207a65726f60d81b606082015260800190565b60008219821115612af657612af6612b67565b500190565b600082612b1657634e487b7160e01b81526012600452602481fd5b500490565b600082821015612b2d57612b2d612b67565b500390565b600181811c90821680612b4657607f821691505b60208210811415611db257634e487b7160e01b600052602260045260246000fd5b634e487b7160e01b600052601160045260246000fd5b6001600160a01b038116811461167c57600080fdfe290decd9548b62a8d60345a988386fc84ba6bc95484008f6362f93160ef3e563de0bfecee0b804b5c4c26d6c364e19a4c912886bee76fc601182976ac7c222cabc7a322f72742a0c810e1f76615f57ed3a5bbfcbd956d3d451b3158968faace9a26469706673582212200ce5270a2d2ab113e72eee51a8aefc78b9902985c7e93392d03d4eb590e320dc64736f6c63430008040033",
  "devdoc": {
    "kind": "dev",
    "methods": {
      "allowance(address,address)": {
        "details": "Returns the remaining number of tokens that `spender` will be allowed to spend on behalf of `owner` through {transferFrom}. This is zero by default. This value changes when {approve} or {transferFrom} are called."
      },
      "approve(address,uint256)": {
        "details": "Sets `amount` as the allowance of `spender` over the caller's tokens. Returns a boolean value indicating whether the operation succeeded. IMPORTANT: Beware that changing an allowance with this method brings the risk that someone may use both the old and the new allowance by unfortunate transaction ordering. One possible solution to mitigate this race condition is to first reduce the spender's allowance to 0 and set the desired value afterwards: https://github.com/ethereum/EIPs/issues/20#issuecomment-263524729 Emits an {Approval} event."
      },
      "balanceOf(address)": {
        "details": "Returns the amount of tokens owned by `account`."
      },
      "decimals()": {
        "details": "Returns the decimals places of the token."
      },
      "delegate(address)": {
        "details": "Delegates votes from the sender to `delegatee`."
      },
      "delegateBySig(address,uint256,uint256,uint8,bytes32,bytes32)": {
        "details": "Delegates votes from signer to `delegatee`."
      },
      "delegates(address)": {
        "details": "Returns the delegate that `account` has chosen."
      },
      "getPastVotes(address,uint256)": {
        "details": "Returns the amount of votes that `account` had at the end of a past block (`blockNumber`)."
      },
      "getVotes(address)": {
        "details": "Returns the current amount of votes that `account` has."
      },
      "name()": {
        "details": "Returns the name of the token."
      },
      "nonces(address)": {
        "details": "Returns the current nonce for `owner`. This value must be included whenever a signature is generated for {permit}. Every successful call to {permit} increases ``owner``'s nonce by one. This prevents a signature from being used multiple times."
      },
      "owner()": {
        "details": "Returns the address of the current owner."
      },
      "permit(address,address,uint256,uint256,uint8,bytes32,bytes32)": {
        "details": "Sets `value` as the allowance of `spender` over ``owner``'s tokens, given ``owner``'s signed approval. IMPORTANT: The same issues {IERC20-approve} has related to transaction ordering also apply here. Emits an {Approval} event. Requirements: - `spender` cannot be the zero address. - `deadline` must be a timestamp in the future. - `v`, `r` and `s` must be a valid `secp256k1` signature from `owner` over the EIP712-formatted function arguments. - the signature must use ``owner``'s current nonce (see {nonces}). For more information on the signature format, see the https://eips.ethereum.org/EIPS/eip-2612#specification[relevant EIP section]."
      },
      "renounceOwnership()": {
        "details": "Leaves the contract without owner. It will not be possible to call `onlyOwner` functions anymore. Can only be called by the current owner. NOTE: Renouncing ownership will leave the contract without an owner, thereby removing any functionality that is only available to the owner."
      },
      "symbol()": {
        "details": "Returns the symbol of the token."
      },
      "transfer(address,uint256)": {
        "details": "Moves `amount` tokens from the caller's account to `to`. Returns a boolean value indicating whether the operation succeeded. Emits a {Transfer} event."
      },
      "transferFrom(address,address,uint256)": {
        "details": "Moves `amount` tokens from `from` to `to` using the allowance mechanism. `amount` is then deducted from the caller's allowance. Returns a boolean value indicating whether the operation succeeded. Emits a {Transfer} event."
      },
      "transferOwnership(address)": {
        "details": "Transfers ownership of the contract to a new account (`newOwner`). Can only be called by the current owner."
      }
    },
    "version": 1
  },
  "userdoc": {
    "kind": "user",
    "methods": {},
    "version": 1
  },
  "storageLayout": {
    "storage": [
      {
        "astId": 2475,
        "contract": "contracts/Bridge23.sol:Bridge23",
        "label": "_balances",
        "offset": 0,
        "slot": "0",
        "type": "t_mapping(t_bytes32,t_uint256)"
      },
      {
        "astId": 2481,
        "contract": "contracts/Bridge23.sol:Bridge23",
        "label": "_allowances",
        "offset": 0,
        "slot": "1",
        "type": "t_mapping(t_bytes32,t_mapping(t_bytes32,t_uint256))"
      },
      {
        "astId": 2483,
        "contract": "contracts/Bridge23.sol:Bridge23",
        "label": "_totalSupply",
        "offset": 0,
        "slot": "2",
        "type": "t_uint256"
      },
      {
        "astId": 2485,
        "contract": "contracts/Bridge23.sol:Bridge23",
        "label": "_name",
        "offset": 0,
        "slot": "3",
        "type": "t_string_storage"
      },
      {
        "astId": 2487,
        "contract": "contracts/Bridge23.sol:Bridge23",
        "label": "_symbol",
        "offset": 0,
        "slot": "4",
        "type": "t_string_storage"
      },
      {
        "astId": 3420,
        "contract": "contracts/Bridge23.sol:Bridge23",
        "label": "_nonces",
        "offset": 0,
        "slot": "5",
        "type": "t_mapping(t_bytes32,t_struct(Counter)729_storage)"
      },
      {
        "astId": 4059,
        "contract": "contracts/Bridge23.sol:Bridge23",
        "label": "_delegates",
        "offset": 0,
        "slot": "6",
        "type": "t_mapping(t_bytes32,t_bytes32)"
      },
      {
        "astId": 4065,
        "contract": "contracts/Bridge23.sol:Bridge23",
        "label": "_checkpoints",
        "offset": 0,
        "slot": "7",
        "type": "t_mapping(t_bytes32,t_array(t_struct(Checkpoint)4045_storage)dyn_storage)"
      },
      {
        "astId": 4069,
        "contract": "contracts/Bridge23.sol:Bridge23",
        "label": "_totalSupplyCheckpoints",
        "offset": 0,
        "slot": "8",
        "type": "t_array(t_struct(Checkpoint)4045_storage)dyn_storage"
      },
      {
        "astId": 7,
        "contract": "contracts/Bridge23.sol:Bridge23",
        "label": "_owner",
        "offset": 0,
        "slot": "9",
        "type": "t_address"
      }
    ],
    "types": {
      "t_address": {
        "encoding": "inplace",
        "label": "address",
        "numberOfBytes": "20"
      },
      "t_array(t_struct(Checkpoint)4045_storage)dyn_storage": {
        "base": "t_struct(Checkpoint)4045_storage",
        "encoding": "dynamic_array",
        "label": "struct ERC20Votes.Checkpoint[]",
        "numberOfBytes": "32"
      },
      "t_bytes32": {
        "encoding": "inplace",
        "label": "bytes32",
        "numberOfBytes": "32"
      },
      "t_mapping(t_bytes32,t_array(t_struct(Checkpoint)4045_storage)dyn_storage)": {
        "encoding": "mapping",
        "key": "t_bytes32",
        "label": "mapping(bytes32 => struct ERC20Votes.Checkpoint[])",
        "numberOfBytes": "32",
        "value": "t_array(t_struct(Checkpoint)4045_storage)dyn_storage"
      },
      "t_mapping(t_bytes32,t_bytes32)": {
        "encoding": "mapping",
        "key": "t_bytes32",
        "label": "mapping(bytes32 => bytes32)",
        "numberOfBytes": "32",
        "value": "t_bytes32"
      },
      "t_mapping(t_bytes32,t_mapping(t_bytes32,t_uint256))": {
        "encoding": "mapping",
        "key": "t_bytes32",
        "label": "mapping(bytes32 => mapping(bytes32 => uint256))",
        "numberOfBytes": "32",
        "value": "t_mapping(t_bytes32,t_uint256)"
      },
      "t_mapping(t_bytes32,t_struct(Counter)729_storage)": {
        "encoding": "mapping",
        "key": "t_bytes32",
        "label": "mapping(bytes32 => struct Counters.Counter)",
        "numberOfBytes": "32",
        "value": "t_struct(Counter)729_storage"
      },
      "t_mapping(t_bytes32,t_uint256)": {
        "encoding": "mapping",
        "key": "t_bytes32",
        "label": "mapping(bytes32 => uint256)",
        "numberOfBytes": "32",
        "value": "t_uint256"
      },
      "t_string_storage": {
        "encoding": "bytes",
        "label": "string",
        "numberOfBytes": "32"
      },
      "t_struct(Checkpoint)4045_storage": {
        "encoding": "inplace",
        "label": "struct ERC20Votes.Checkpoint",
        "members": [
          {
            "astId": 4042,
            "contract": "contracts/Bridge23.sol:Bridge23",
            "label": "fromBlock",
            "offset": 0,
            "slot": "0",
            "type": "t_uint32"
          },
          {
            "astId": 4044,
            "contract": "contracts/Bridge23.sol:Bridge23",
            "label": "votes",
            "offset": 4,
            "slot": "0",
            "type": "t_uint224"
          }
        ],
        "numberOfBytes": "32"
      },
      "t_struct(Counter)729_storage": {
        "encoding": "inplace",
        "label": "struct Counters.Counter",
        "members": [
          {
            "astId": 728,
            "contract": "contracts/Bridge23.sol:Bridge23",
            "label": "_value",
            "offset": 0,
            "slot": "0",
            "type": "t_uint256"
          }
        ],
        "numberOfBytes": "32"
      },
      "t_uint224": {
        "encoding": "inplace",
        "label": "uint224",
        "numberOfBytes": "28"
      },
      "t_uint256": {
        "encoding": "inplace",
        "label": "uint256",
        "numberOfBytes": "32"
      },
      "t_uint32": {
        "encoding": "inplace",
        "label": "uint32",
        "numberOfBytes": "4"
      }
    }
  }
}