{
  "address": "0x1f95EbA61d950C5E67442839212dE00a23896c0a",
  "abi": [
    {
      "anonymous": false,
      "inputs": [
        {
          "indexed": true,
          "internalType": "bytes32",
          "name": "id",
          "type": "bytes32"
        },
        {
          "indexed": true,
          "internalType": "address",
          "name": "authenticator",
          "type": "address"
        }
      ],
      "name": "AuthKeyUpdate",
      "type": "event"
    },
    {
      "anonymous": false,
      "inputs": [
        {
          "indexed": true,
          "internalType": "bytes32",
          "name": "id",
          "type": "bytes32"
        },
        {
          "indexed": true,
          "internalType": "address",
          "name": "authKey",
          "type": "address"
        },
        {
          "indexed": false,
          "internalType": "string",
          "name": "username",
          "type": "string"
        }
      ],
      "name": "Register",
      "type": "event"
    },
    {
      "inputs": [
        {
          "internalType": "bytes32",
          "name": "id",
          "type": "bytes32"
        }
      ],
      "name": "authKey",
      "outputs": [
        {
          "internalType": "address",
          "name": "",
          "type": "address"
        }
      ],
      "stateMutability": "view",
      "type": "function"
    },
    {
      "inputs": [
        {
          "internalType": "bytes32",
          "name": "id",
          "type": "bytes32"
        },
        {
          "internalType": "address",
          "name": "operator",
          "type": "address"
        }
      ],
      "name": "authenticate",
      "outputs": [
        {
          "internalType": "bool",
          "name": "",
          "type": "bool"
        }
      ],
      "stateMutability": "view",
      "type": "function"
    },
    {
      "inputs": [
        {
          "internalType": "string",
          "name": "username_",
          "type": "string"
        },
        {
          "internalType": "address",
          "name": "authKey_",
          "type": "address"
        }
      ],
      "name": "register",
      "outputs": [],
      "stateMutability": "nonpayable",
      "type": "function"
    },
    {
      "inputs": [
        {
          "internalType": "bytes32",
          "name": "id",
          "type": "bytes32"
        },
        {
          "internalType": "address",
          "name": "newAuthKey",
          "type": "address"
        }
      ],
      "name": "updateAuthKey",
      "outputs": [],
      "stateMutability": "nonpayable",
      "type": "function"
    },
    {
      "inputs": [
        {
          "internalType": "bytes32",
          "name": "id",
          "type": "bytes32"
        }
      ],
      "name": "username",
      "outputs": [
        {
          "internalType": "string",
          "name": "",
          "type": "string"
        }
      ],
      "stateMutability": "view",
      "type": "function"
    }
  ],
  "transactionHash": "0x8c2e742edcf31ccd4a634f4ed9adf1485df5b5a9b6cddee8a4b5780b81d3251d",
  "args": [],
  "numDeployments": 4,
  "solcInputHash": "5f18aae42edb57ee56ee031963f10f72",
  "bytecode": "0x608060405234801561001057600080fd5b506106c6806100206000396000f3fe608060405234801561001057600080fd5b50600436106100575760003560e01c80631e59c5291461005c5780638f37ad29146100715780639485133a1461009a578063ad9a2fc6146100ad578063be98d55a146100cd575b600080fd5b61006f61006a366004610525565b6100f0565b005b61008461007f3660046104e2565b610240565b60405161009191906105ec565b60405180910390f35b61006f6100a83660046104fa565b6102e2565b6100c06100bb3660046104e2565b61039e565b60405161009191906105d8565b6100e06100db3660046104fa565b6103bc565b6040519015158152602001610091565b60008260405160200161010391906105ec565b60405160208183030381529060405280519060200120905060006001600160a01b031661012f8261039e565b6001600160a01b0316146101965760405162461bcd60e51b815260206004820152602360248201527f4964656e74697479536572766963653a20616c726561647920726567697374656044820152621c995960ea1b60648201526084015b60405180910390fd5b6040805180820182528481526001600160a01b03841660208083019190915260008481528082529290922081518051929391926101d6928492019061042d565b5060209190910151600190910180546001600160a01b0319166001600160a01b039283161790556040519083169082907fa3f8ab5a398eae5d4e5b92373d1de9ebce1cb9fe46ac1d136dac922d456dff74906102339087906105ec565b60405180910390a3505050565b600081815260208190526040902080546060919061025d9061063f565b80601f01602080910402602001604051908101604052809291908181526020018280546102899061063f565b80156102d65780601f106102ab576101008083540402835291602001916102d6565b820191906000526020600020905b8154815290600101906020018083116102b957829003601f168201915b50505050509050919050565b336102ec8361039e565b6001600160a01b0316146103425760405162461bcd60e51b815260206004820152601f60248201527f4964656e74697479536572766963653a206e6f7420617574686f72697a656400604482015260640161018d565b60008281526020819052604080822060010180546001600160a01b0319166001600160a01b0385169081179091559051909184917f54f39fc7b0e71d32cb7e22fbf6e7e749bb3c93497a20c7e1f3079699ab5dc2ac9190a35050565b6000908152602081905260409020600101546001600160a01b031690565b6000826103d1836001600160a01b03166103fd565b14806103f65750816001600160a01b03166103eb8461039e565b6001600160a01b0316145b9392505050565b60008160405160200161041091906105d8565b604051602081830303815290604052805190602001209050919050565b8280546104399061063f565b90600052602060002090601f01602090048101928261045b57600085556104a1565b82601f1061047457805160ff19168380011785556104a1565b828001600101855582156104a1579182015b828111156104a1578251825591602001919060010190610486565b506104ad9291506104b1565b5090565b5b808211156104ad57600081556001016104b2565b80356001600160a01b03811681146104dd57600080fd5b919050565b6000602082840312156104f3578081fd5b5035919050565b6000806040838503121561050c578081fd5b8235915061051c602084016104c6565b90509250929050565b60008060408385031215610537578182fd5b82356001600160401b038082111561054d578384fd5b818501915085601f830112610560578384fd5b8135818111156105725761057261067a565b604051601f8201601f19908116603f0116810190838211818310171561059a5761059a61067a565b816040528281528860208487010111156105b2578687fd5b826020860160208301378660208483010152809650505050505061051c602084016104c6565b6001600160a01b0391909116815260200190565b6000602080835283518082850152825b81811015610618578581018301518582016040015282016105fc565b818111156106295783604083870101525b50601f01601f1916929092016040019392505050565b600181811c9082168061065357607f821691505b6020821081141561067457634e487b7160e01b600052602260045260246000fd5b50919050565b634e487b7160e01b600052604160045260246000fdfea2646970667358221220124e298910bd98586c108354070ac9af9da16d496a0db368288cbdccfdd83d4564736f6c63430008040033",
  "devdoc": {
    "kind": "dev",
    "methods": {},
    "version": 1
  },
  "userdoc": {
    "kind": "user",
    "methods": {},
    "version": 1
  },
  "storageLayout": {
    "storage": [
      {
        "astId": 1904,
        "contract": "contracts/identity/IdentityService.sol:IdentityService",
        "label": "_identities",
        "offset": 0,
        "slot": "0",
        "type": "t_mapping(t_bytes32,t_struct(Identity)1899_storage)"
      }
    ],
    "types": {
      "t_address": {
        "encoding": "inplace",
        "label": "address",
        "numberOfBytes": "20"
      },
      "t_bytes32": {
        "encoding": "inplace",
        "label": "bytes32",
        "numberOfBytes": "32"
      },
      "t_mapping(t_bytes32,t_struct(Identity)1899_storage)": {
        "encoding": "mapping",
        "key": "t_bytes32",
        "label": "mapping(bytes32 => struct IdentityService.Identity)",
        "numberOfBytes": "32",
        "value": "t_struct(Identity)1899_storage"
      },
      "t_string_storage": {
        "encoding": "bytes",
        "label": "string",
        "numberOfBytes": "32"
      },
      "t_struct(Identity)1899_storage": {
        "encoding": "inplace",
        "label": "struct IdentityService.Identity",
        "members": [
          {
            "astId": 1896,
            "contract": "contracts/identity/IdentityService.sol:IdentityService",
            "label": "username",
            "offset": 0,
            "slot": "0",
            "type": "t_string_storage"
          },
          {
            "astId": 1898,
            "contract": "contracts/identity/IdentityService.sol:IdentityService",
            "label": "authKey",
            "offset": 0,
            "slot": "1",
            "type": "t_address"
          }
        ],
        "numberOfBytes": "64"
      }
    }
  }
}