{
  "address": "0x52c4b55603669c47ccf3C2444cd96027ee63457A",
  "abi": [
    {
      "inputs": [
        {
          "internalType": "string",
          "name": "name",
          "type": "string"
        },
        {
          "internalType": "string",
          "name": "symbol",
          "type": "string"
        },
        {
          "internalType": "address",
          "name": "identityService",
          "type": "address"
        },
        {
          "internalType": "uint256",
          "name": "supplyCap",
          "type": "uint256"
        }
      ],
      "stateMutability": "nonpayable",
      "type": "constructor"
    },
    {
      "anonymous": false,
      "inputs": [
        {
          "indexed": true,
          "internalType": "bytes32",
          "name": "owner",
          "type": "bytes32"
        },
        {
          "indexed": true,
          "internalType": "bytes32",
          "name": "spender",
          "type": "bytes32"
        },
        {
          "indexed": false,
          "internalType": "uint256",
          "name": "value",
          "type": "uint256"
        }
      ],
      "name": "Approval",
      "type": "event"
    },
    {
      "anonymous": false,
      "inputs": [
        {
          "indexed": true,
          "internalType": "address",
          "name": "owner",
          "type": "address"
        },
        {
          "indexed": true,
          "internalType": "address",
          "name": "spender",
          "type": "address"
        },
        {
          "indexed": false,
          "internalType": "uint256",
          "name": "value",
          "type": "uint256"
        }
      ],
      "name": "Approval",
      "type": "event"
    },
    {
      "anonymous": false,
      "inputs": [
        {
          "indexed": true,
          "internalType": "address",
          "name": "previousOwner",
          "type": "address"
        },
        {
          "indexed": true,
          "internalType": "address",
          "name": "newOwner",
          "type": "address"
        }
      ],
      "name": "OwnershipTransferred",
      "type": "event"
    },
    {
      "anonymous": false,
      "inputs": [
        {
          "indexed": true,
          "internalType": "bytes32",
          "name": "from",
          "type": "bytes32"
        },
        {
          "indexed": true,
          "internalType": "bytes32",
          "name": "to",
          "type": "bytes32"
        },
        {
          "indexed": false,
          "internalType": "uint256",
          "name": "value",
          "type": "uint256"
        }
      ],
      "name": "Transfer",
      "type": "event"
    },
    {
      "anonymous": false,
      "inputs": [
        {
          "indexed": true,
          "internalType": "address",
          "name": "from",
          "type": "address"
        },
        {
          "indexed": true,
          "internalType": "address",
          "name": "to",
          "type": "address"
        },
        {
          "indexed": false,
          "internalType": "uint256",
          "name": "value",
          "type": "uint256"
        }
      ],
      "name": "Transfer",
      "type": "event"
    },
    {
      "inputs": [],
      "name": "ADDRESS_ZERO",
      "outputs": [
        {
          "internalType": "bytes32",
          "name": "",
          "type": "bytes32"
        }
      ],
      "stateMutability": "view",
      "type": "function"
    },
    {
      "inputs": [
        {
          "internalType": "address",
          "name": "owner",
          "type": "address"
        },
        {
          "internalType": "address",
          "name": "spender",
          "type": "address"
        }
      ],
      "name": "allowance",
      "outputs": [
        {
          "internalType": "uint256",
          "name": "",
          "type": "uint256"
        }
      ],
      "stateMutability": "view",
      "type": "function"
    },
    {
      "inputs": [
        {
          "internalType": "bytes32",
          "name": "owner",
          "type": "bytes32"
        },
        {
          "internalType": "bytes32",
          "name": "spender",
          "type": "bytes32"
        }
      ],
      "name": "allowance",
      "outputs": [
        {
          "internalType": "uint256",
          "name": "",
          "type": "uint256"
        }
      ],
      "stateMutability": "view",
      "type": "function"
    },
    {
      "inputs": [
        {
          "internalType": "address",
          "name": "spender",
          "type": "address"
        },
        {
          "internalType": "uint256",
          "name": "amount",
          "type": "uint256"
        }
      ],
      "name": "approve",
      "outputs": [
        {
          "internalType": "bool",
          "name": "",
          "type": "bool"
        }
      ],
      "stateMutability": "nonpayable",
      "type": "function"
    },
    {
      "inputs": [
        {
          "internalType": "bytes32",
          "name": "owner",
          "type": "bytes32"
        },
        {
          "internalType": "bytes32",
          "name": "spender",
          "type": "bytes32"
        },
        {
          "internalType": "uint256",
          "name": "amount",
          "type": "uint256"
        }
      ],
      "name": "approve",
      "outputs": [
        {
          "internalType": "bool",
          "name": "",
          "type": "bool"
        }
      ],
      "stateMutability": "nonpayable",
      "type": "function"
    },
    {
      "inputs": [
        {
          "internalType": "bytes32",
          "name": "account",
          "type": "bytes32"
        }
      ],
      "name": "balanceOf",
      "outputs": [
        {
          "internalType": "uint256",
          "name": "",
          "type": "uint256"
        }
      ],
      "stateMutability": "view",
      "type": "function"
    },
    {
      "inputs": [
        {
          "internalType": "address",
          "name": "account",
          "type": "address"
        }
      ],
      "name": "balanceOf",
      "outputs": [
        {
          "internalType": "uint256",
          "name": "",
          "type": "uint256"
        }
      ],
      "stateMutability": "view",
      "type": "function"
    },
    {
      "inputs": [],
      "name": "cap",
      "outputs": [
        {
          "internalType": "uint256",
          "name": "",
          "type": "uint256"
        }
      ],
      "stateMutability": "view",
      "type": "function"
    },
    {
      "inputs": [],
      "name": "decimals",
      "outputs": [
        {
          "internalType": "uint8",
          "name": "",
          "type": "uint8"
        }
      ],
      "stateMutability": "view",
      "type": "function"
    },
    {
      "inputs": [
        {
          "internalType": "bytes32",
          "name": "owner",
          "type": "bytes32"
        },
        {
          "internalType": "bytes32",
          "name": "spender",
          "type": "bytes32"
        },
        {
          "internalType": "uint256",
          "name": "subtractedValue",
          "type": "uint256"
        }
      ],
      "name": "decreaseAllowance",
      "outputs": [
        {
          "internalType": "bool",
          "name": "",
          "type": "bool"
        }
      ],
      "stateMutability": "nonpayable",
      "type": "function"
    },
    {
      "inputs": [
        {
          "internalType": "address",
          "name": "spender",
          "type": "address"
        },
        {
          "internalType": "uint256",
          "name": "subtractedValue",
          "type": "uint256"
        }
      ],
      "name": "decreaseAllowance",
      "outputs": [
        {
          "internalType": "bool",
          "name": "",
          "type": "bool"
        }
      ],
      "stateMutability": "nonpayable",
      "type": "function"
    },
    {
      "inputs": [],
      "name": "identityService",
      "outputs": [
        {
          "internalType": "address",
          "name": "",
          "type": "address"
        }
      ],
      "stateMutability": "view",
      "type": "function"
    },
    {
      "inputs": [
        {
          "internalType": "address",
          "name": "spender",
          "type": "address"
        },
        {
          "internalType": "uint256",
          "name": "addedValue",
          "type": "uint256"
        }
      ],
      "name": "increaseAllowance",
      "outputs": [
        {
          "internalType": "bool",
          "name": "",
          "type": "bool"
        }
      ],
      "stateMutability": "nonpayable",
      "type": "function"
    },
    {
      "inputs": [
        {
          "internalType": "bytes32",
          "name": "owner",
          "type": "bytes32"
        },
        {
          "internalType": "bytes32",
          "name": "spender",
          "type": "bytes32"
        },
        {
          "internalType": "uint256",
          "name": "addedValue",
          "type": "uint256"
        }
      ],
      "name": "increaseAllowance",
      "outputs": [
        {
          "internalType": "bool",
          "name": "",
          "type": "bool"
        }
      ],
      "stateMutability": "nonpayable",
      "type": "function"
    },
    {
      "inputs": [
        {
          "internalType": "address",
          "name": "to",
          "type": "address"
        },
        {
          "internalType": "uint256",
          "name": "amount",
          "type": "uint256"
        }
      ],
      "name": "mint",
      "outputs": [],
      "stateMutability": "nonpayable",
      "type": "function"
    },
    {
      "inputs": [
        {
          "internalType": "bytes32",
          "name": "to",
          "type": "bytes32"
        },
        {
          "internalType": "uint256",
          "name": "amount",
          "type": "uint256"
        }
      ],
      "name": "mint",
      "outputs": [],
      "stateMutability": "nonpayable",
      "type": "function"
    },
    {
      "inputs": [],
      "name": "name",
      "outputs": [
        {
          "internalType": "string",
          "name": "",
          "type": "string"
        }
      ],
      "stateMutability": "view",
      "type": "function"
    },
    {
      "inputs": [],
      "name": "owner",
      "outputs": [
        {
          "internalType": "address",
          "name": "",
          "type": "address"
        }
      ],
      "stateMutability": "view",
      "type": "function"
    },
    {
      "inputs": [],
      "name": "renounceOwnership",
      "outputs": [],
      "stateMutability": "nonpayable",
      "type": "function"
    },
    {
      "inputs": [],
      "name": "symbol",
      "outputs": [
        {
          "internalType": "string",
          "name": "",
          "type": "string"
        }
      ],
      "stateMutability": "view",
      "type": "function"
    },
    {
      "inputs": [],
      "name": "totalSupply",
      "outputs": [
        {
          "internalType": "uint256",
          "name": "",
          "type": "uint256"
        }
      ],
      "stateMutability": "view",
      "type": "function"
    },
    {
      "inputs": [
        {
          "internalType": "address",
          "name": "to",
          "type": "address"
        },
        {
          "internalType": "uint256",
          "name": "amount",
          "type": "uint256"
        }
      ],
      "name": "transfer",
      "outputs": [
        {
          "internalType": "bool",
          "name": "",
          "type": "bool"
        }
      ],
      "stateMutability": "nonpayable",
      "type": "function"
    },
    {
      "inputs": [
        {
          "internalType": "bytes32",
          "name": "from",
          "type": "bytes32"
        },
        {
          "internalType": "bytes32",
          "name": "to",
          "type": "bytes32"
        },
        {
          "internalType": "uint256",
          "name": "amount",
          "type": "uint256"
        }
      ],
      "name": "transfer",
      "outputs": [
        {
          "internalType": "bool",
          "name": "",
          "type": "bool"
        }
      ],
      "stateMutability": "nonpayable",
      "type": "function"
    },
    {
      "inputs": [
        {
          "internalType": "address",
          "name": "from",
          "type": "address"
        },
        {
          "internalType": "address",
          "name": "to",
          "type": "address"
        },
        {
          "internalType": "uint256",
          "name": "amount",
          "type": "uint256"
        }
      ],
      "name": "transferFrom",
      "outputs": [
        {
          "internalType": "bool",
          "name": "",
          "type": "bool"
        }
      ],
      "stateMutability": "nonpayable",
      "type": "function"
    },
    {
      "inputs": [
        {
          "internalType": "bytes32",
          "name": "delegator",
          "type": "bytes32"
        },
        {
          "internalType": "bytes32",
          "name": "from",
          "type": "bytes32"
        },
        {
          "internalType": "bytes32",
          "name": "to",
          "type": "bytes32"
        },
        {
          "internalType": "uint256",
          "name": "amount",
          "type": "uint256"
        }
      ],
      "name": "transferFrom",
      "outputs": [
        {
          "internalType": "bool",
          "name": "",
          "type": "bool"
        }
      ],
      "stateMutability": "nonpayable",
      "type": "function"
    },
    {
      "inputs": [
        {
          "internalType": "address",
          "name": "newOwner",
          "type": "address"
        }
      ],
      "name": "transferOwnership",
      "outputs": [],
      "stateMutability": "nonpayable",
      "type": "function"
    }
  ],
  "transactionHash": "0x74ed26e7e8eff02989f83b21dc548a490955140dc84bbc60a68d02a934a7f30a",
  "args": [
    "Bridge23",
    "B23",
    "0xAbAaC3B10E8730E1Ce186338A75cE701eb1700E8",
    "10000000000000000000000000"
  ],
  "numDeployments": 4,
  "solcInputHash": "ba1a2fff3b46e926ec4c6059bde08236",
  "bytecode": "0x60c06040523480156200001157600080fd5b506040516200167c3803806200167c83398101604081905262000034916200028f565b8084848482600390805190602001906200005092919062000136565b5081516200006690600490602085019062000136565b5060601b6001600160601b03191660805250819050620000cc5760405162461bcd60e51b815260206004820152601560248201527f45524332304361707065643a2063617020697320300000000000000000000000604482015260640160405180910390fd5b60a052620000da33620000e4565b5050505062000371565b600580546001600160a01b038381166001600160a01b0319831681179093556040519116919082907f8be0079c531659141344cd1fd0a4f28419497f9722a3daafe3b4186f6b6457e090600090a35050565b82805462000144906200031e565b90600052602060002090601f016020900481019282620001685760008555620001b3565b82601f106200018357805160ff1916838001178555620001b3565b82800160010185558215620001b3579182015b82811115620001b357825182559160200191906001019062000196565b50620001c1929150620001c5565b5090565b5b80821115620001c15760008155600101620001c6565b600082601f830112620001ed578081fd5b81516001600160401b03808211156200020a576200020a6200035b565b604051601f8301601f19908116603f011681019082821181831017156200023557620002356200035b565b8160405283815260209250868385880101111562000251578485fd5b8491505b8382101562000274578582018301518183018401529082019062000255565b838211156200028557848385830101525b9695505050505050565b60008060008060808587031215620002a5578384fd5b84516001600160401b0380821115620002bc578586fd5b620002ca88838901620001dc565b95506020870151915080821115620002e0578485fd5b50620002ef87828801620001dc565b604087015190945090506001600160a01b03811681146200030e578283fd5b6060959095015193969295505050565b600181811c908216806200033357607f821691505b602082108114156200035557634e487b7160e01b600052602260045260246000fd5b50919050565b634e487b7160e01b600052604160045260246000fd5b60805160601c60a0516112bf620003bd600039600061047a0152600081816102a60152818161055501528181610715015281816107a101528181610838015261091a01526112bf6000f3fe608060405234801561001057600080fd5b506004361061013e5760003560e01c806306fdde0314610143578063095ea7b31461016157806318160ddd1461018457806323b872dd14610196578063313ce567146101a9578063355274ea146101b857806339509351146101c057806340c10f19146101d35780634641fd2d146101e857806366e79509146101fb5780636c7f15421461021057806370a0823114610230578063715018a6146102435780638da5cb5b1461024b57806395d89b4114610260578063a457c2d714610268578063a9059cbb1461027b578063ae9f75e31461028e578063c39b3d9a146102a1578063db66e5d3146102c8578063dc69fc8a146102db578063dd62ed3e146102ee578063e0081b8c14610301578063e1856ff414610314578063f2a9a8c714610327578063f2fde38b1461033a575b600080fd5b61014b61034d565b604051610158919061111d565b60405180910390f35b61017461016f366004611034565b6103df565b6040519015158152602001610158565b6002545b604051908152602001610158565b6101746101a4366004610ff9565b610410565b60405160128152602001610158565b610188610478565b6101746101ce366004611034565b61049c565b6101e66101e1366004611034565b6104ec565b005b6101746101f63660046110c7565b610543565b61018860008051602061124a83398151915281565b61018861021e36600461105d565b60009081526020819052604090205490565b61018861023e366004610fa6565b6105ff565b6101e661062c565b610253610667565b60405161015891906110f2565b61014b610676565b610174610276366004611034565b610685565b610174610289366004611034565b6106f2565b61017461029c3660046110c7565b610701565b6102537f000000000000000000000000000000000000000000000000000000000000000081565b6101746102d6366004611096565b61078f565b6101746102e93660046110c7565b610826565b6101886102fc366004610fc7565b6108b7565b61017461030f3660046110c7565b610908565b6101e6610322366004611075565b610994565b610188610335366004611075565b6109cd565b6101e6610348366004610fa6565b6109ea565b60606003805461035c9061120e565b80601f01602080910402602001604051908101604052809291908181526020018280546103889061120e565b80156103d55780601f106103aa576101008083540402835291602001916103d5565b820191906000526020600020905b8154815290600101906020018083116103b857829003601f168201915b5050505050905090565b6000336104066103ee82610a8a565b610400866001600160a01b0316610a8a565b85610aba565b5060019392505050565b6000336104406104286001600160a01b038716610a8a565b61043a836001600160a01b0316610a8a565b85610be3565b61046d610455866001600160a01b0316610a8a565b610467866001600160a01b0316610a8a565b85610c5d565b506001949350505050565b7f000000000000000000000000000000000000000000000000000000000000000090565b600033816104a982610a8a565b905060006104bf866001600160a01b0316610a8a565b90506104e08282876104d186866109cd565b6104db91906111ea565b610aba565b50600195945050505050565b336104f5610667565b6001600160a01b0316146105245760405162461bcd60e51b815260040161051b90611170565b60405180910390fd5b61053f610539836001600160a01b0316610a8a565b82610df9565b5050565b604051635f4c6aad60e11b81526000907f00000000000000000000000000000000000000000000000000000000000000006001600160a01b03169063be98d55a906105949087903390600401611106565b60006040518083038186803b1580156105ac57600080fd5b505afa1580156105c0573d6000803e3d6000fd5b5050505060006105d085856109cd565b9050828110156105f25760405162461bcd60e51b815260040161051b906111a5565b61046d8585858403610aba565b6000806000610616846001600160a01b0316610a8a565b8152602001908152602001600020549050919050565b33610635610667565b6001600160a01b03161461065b5760405162461bcd60e51b815260040161051b90611170565b6106656000610e69565b565b6005546001600160a01b031690565b60606004805461035c9061120e565b6000338161069282610a8a565b905060006106a8866001600160a01b0316610a8a565b905060006106b683836109cd565b9050858110156106d85760405162461bcd60e51b815260040161051b906111a5565b6106e58383888403610aba565b5060019695505050505050565b60003361040661045582610a8a565b604051635f4c6aad60e11b815260009033907f00000000000000000000000000000000000000000000000000000000000000006001600160a01b03169063be98d55a906107549088908590600401611106565b60006040518083038186803b15801561076c57600080fd5b505afa158015610780573d6000803e3d6000fd5b5050505061046d858585610c5d565b604051635f4c6aad60e11b81526000907f00000000000000000000000000000000000000000000000000000000000000006001600160a01b03169063be98d55a906107e09088903390600401611106565b60006040518083038186803b1580156107f857600080fd5b505afa15801561080c573d6000803e3d6000fd5b5050505061081b848684610be3565b61046d848484610c5d565b604051635f4c6aad60e11b81526000907f00000000000000000000000000000000000000000000000000000000000000006001600160a01b03169063be98d55a906108779087903390600401611106565b60006040518083038186803b15801561088f57600080fd5b505afa1580156108a3573d6000803e3d6000fd5b505050506104068484846104d188886109cd565b6000600160006108cf856001600160a01b0316610a8a565b815260200190815260200160002060006108f1846001600160a01b0316610a8a565b815260200190815260200160002054905092915050565b604051635f4c6aad60e11b81526000907f00000000000000000000000000000000000000000000000000000000000000006001600160a01b03169063be98d55a906109599087903390600401611106565b60006040518083038186803b15801561097157600080fd5b505afa158015610985573d6000803e3d6000fd5b50505050610406848484610aba565b3361099d610667565b6001600160a01b0316146109c35760405162461bcd60e51b815260040161051b90611170565b61053f8282610df9565b600091825260016020908152604080842092845291905290205490565b336109f3610667565b6001600160a01b031614610a195760405162461bcd60e51b815260040161051b90611170565b6001600160a01b038116610a7e5760405162461bcd60e51b815260206004820152602660248201527f4f776e61626c653a206e6577206f776e657220697320746865207a65726f206160448201526564647265737360d01b606482015260840161051b565b610a8781610e69565b50565b600081604051602001610a9d91906110f2565b604051602081830303815290604052805190602001209050919050565b60008051602061124a833981519152831415610b245760405162461bcd60e51b8152602060048201526024808201527f45524332303a20617070726f76652066726f6d20746865207a65726f206164646044820152637265737360e01b606482015260840161051b565b60008051602061124a833981519152821415610b8d5760405162461bcd60e51b815260206004820152602260248201527f45524332303a20617070726f766520746f20746865207a65726f206164647265604482015261737360f01b606482015260840161051b565b60008381526001602090815260408083208584528252918290208390559051828152839185917ff6d2c55c8d7458b3b22f5534fd41ebe91e2a7da94922c17c1fe9e4d209dca04a910160405180910390a3505050565b6000610bef84846109cd565b90506000198114610c575781811015610c4a5760405162461bcd60e51b815260206004820152601d60248201527f45524332303a20696e73756666696369656e7420616c6c6f77616e6365000000604482015260640161051b565b610c578484848403610aba565b50505050565b60008051602061124a833981519152831415610cc95760405162461bcd60e51b815260206004820152602560248201527f45524332303a207472616e736665722066726f6d20746865207a65726f206164604482015264647265737360d81b606482015260840161051b565b60008051602061124a833981519152821415610d335760405162461bcd60e51b815260206004820152602360248201527f45524332303a207472616e7366657220746f20746865207a65726f206164647260448201526265737360e81b606482015260840161051b565b60008381526020819052604090205481811015610da15760405162461bcd60e51b815260206004820152602660248201527f45524332303a207472616e7366657220616d6f756e7420657863656564732062604482015265616c616e636560d01b606482015260840161051b565b600084815260208190526040808220848403905584825281208054849290610dca9084906111ea565b90915550506040518281528390859060008051602061126a8339815191529060200160405180910390a3610c57565b610e01610478565b81610e0b60025490565b610e1591906111ea565b1115610e5f5760405162461bcd60e51b8152602060048201526019602482015278115490cc8c10d85c1c19590e8818d85c08195e18d959591959603a1b604482015260640161051b565b61053f8282610ebb565b600580546001600160a01b038381166001600160a01b0319831681179093556040519116919082907f8be0079c531659141344cd1fd0a4f28419497f9722a3daafe3b4186f6b6457e090600090a35050565b60008051602061124a833981519152821415610f195760405162461bcd60e51b815260206004820152601f60248201527f45524332303a206d696e7420746f20746865207a65726f206164647265737300604482015260640161051b565b8060026000828254610f2b91906111ea565b909155505060008281526020819052604081208054839290610f4e9084906111ea565b9091555050604051818152829060008051602061124a8339815191529060008051602061126a8339815191529060200160405180910390a35050565b80356001600160a01b0381168114610fa157600080fd5b919050565b600060208284031215610fb7578081fd5b610fc082610f8a565b9392505050565b60008060408385031215610fd9578081fd5b610fe283610f8a565b9150610ff060208401610f8a565b90509250929050565b60008060006060848603121561100d578081fd5b61101684610f8a565b925061102460208501610f8a565b9150604084013590509250925092565b60008060408385031215611046578182fd5b61104f83610f8a565b946020939093013593505050565b60006020828403121561106e578081fd5b5035919050565b60008060408385031215611087578182fd5b50508035926020909101359150565b600080600080608085870312156110ab578081fd5b5050823594602084013594506040840135936060013592509050565b6000806000606084860312156110db578283fd5b505081359360208301359350604090920135919050565b6001600160a01b0391909116815260200190565b9182526001600160a01b0316602082015260400190565b6000602080835283518082850152825b818110156111495785810183015185820160400152820161112d565b8181111561115a5783604083870101525b50601f01601f1916929092016040019392505050565b6020808252818101527f4f776e61626c653a2063616c6c6572206973206e6f7420746865206f776e6572604082015260600190565b60208082526025908201527f45524332303a2064656372656173656420616c6c6f77616e63652062656c6f77604082015264207a65726f60d81b606082015260800190565b6000821982111561120957634e487b7160e01b81526011600452602481fd5b500190565b600181811c9082168061122257607f821691505b6020821081141561124357634e487b7160e01b600052602260045260246000fd5b5091905056fe290decd9548b62a8d60345a988386fc84ba6bc95484008f6362f93160ef3e563bc7a322f72742a0c810e1f76615f57ed3a5bbfcbd956d3d451b3158968faace9a26469706673582212200bc35d14fb6c9df0609d0e8b2b615e4f366c9cf02bce5683346f855855555e3864736f6c63430008040033",
  "devdoc": {
    "kind": "dev",
    "methods": {
      "allowance(address,address)": {
        "details": "Returns the remaining number of tokens that `spender` will be allowed to spend on behalf of `owner` through {transferFrom}. This is zero by default. This value changes when {approve} or {transferFrom} are called."
      },
      "approve(address,uint256)": {
        "details": "Sets `amount` as the allowance of `spender` over the caller's tokens. Returns a boolean value indicating whether the operation succeeded. IMPORTANT: Beware that changing an allowance with this method brings the risk that someone may use both the old and the new allowance by unfortunate transaction ordering. One possible solution to mitigate this race condition is to first reduce the spender's allowance to 0 and set the desired value afterwards: https://github.com/ethereum/EIPs/issues/20#issuecomment-263524729 Emits an {Approval} event."
      },
      "balanceOf(address)": {
        "details": "Returns the amount of tokens owned by `account`."
      },
      "decimals()": {
        "details": "Returns the decimals places of the token."
      },
      "name()": {
        "details": "Returns the name of the token."
      },
      "owner()": {
        "details": "Returns the address of the current owner."
      },
      "renounceOwnership()": {
        "details": "Leaves the contract without owner. It will not be possible to call `onlyOwner` functions anymore. Can only be called by the current owner. NOTE: Renouncing ownership will leave the contract without an owner, thereby removing any functionality that is only available to the owner."
      },
      "symbol()": {
        "details": "Returns the symbol of the token."
      },
      "totalSupply()": {
        "details": "Returns the amount of tokens in existence."
      },
      "transfer(address,uint256)": {
        "details": "Moves `amount` tokens from the caller's account to `to`. Returns a boolean value indicating whether the operation succeeded. Emits a {Transfer} event."
      },
      "transferFrom(address,address,uint256)": {
        "details": "Moves `amount` tokens from `from` to `to` using the allowance mechanism. `amount` is then deducted from the caller's allowance. Returns a boolean value indicating whether the operation succeeded. Emits a {Transfer} event."
      },
      "transferOwnership(address)": {
        "details": "Transfers ownership of the contract to a new account (`newOwner`). Can only be called by the current owner."
      }
    },
    "version": 1
  },
  "userdoc": {
    "kind": "user",
    "methods": {},
    "version": 1
  },
  "storageLayout": {
    "storage": [
      {
        "astId": 338,
        "contract": "contracts/Bridge23.sol:Bridge23",
        "label": "_balances",
        "offset": 0,
        "slot": "0",
        "type": "t_mapping(t_bytes32,t_uint256)"
      },
      {
        "astId": 344,
        "contract": "contracts/Bridge23.sol:Bridge23",
        "label": "_allowances",
        "offset": 0,
        "slot": "1",
        "type": "t_mapping(t_bytes32,t_mapping(t_bytes32,t_uint256))"
      },
      {
        "astId": 346,
        "contract": "contracts/Bridge23.sol:Bridge23",
        "label": "_totalSupply",
        "offset": 0,
        "slot": "2",
        "type": "t_uint256"
      },
      {
        "astId": 348,
        "contract": "contracts/Bridge23.sol:Bridge23",
        "label": "_name",
        "offset": 0,
        "slot": "3",
        "type": "t_string_storage"
      },
      {
        "astId": 350,
        "contract": "contracts/Bridge23.sol:Bridge23",
        "label": "_symbol",
        "offset": 0,
        "slot": "4",
        "type": "t_string_storage"
      },
      {
        "astId": 7,
        "contract": "contracts/Bridge23.sol:Bridge23",
        "label": "_owner",
        "offset": 0,
        "slot": "5",
        "type": "t_address"
      }
    ],
    "types": {
      "t_address": {
        "encoding": "inplace",
        "label": "address",
        "numberOfBytes": "20"
      },
      "t_bytes32": {
        "encoding": "inplace",
        "label": "bytes32",
        "numberOfBytes": "32"
      },
      "t_mapping(t_bytes32,t_mapping(t_bytes32,t_uint256))": {
        "encoding": "mapping",
        "key": "t_bytes32",
        "label": "mapping(bytes32 => mapping(bytes32 => uint256))",
        "numberOfBytes": "32",
        "value": "t_mapping(t_bytes32,t_uint256)"
      },
      "t_mapping(t_bytes32,t_uint256)": {
        "encoding": "mapping",
        "key": "t_bytes32",
        "label": "mapping(bytes32 => uint256)",
        "numberOfBytes": "32",
        "value": "t_uint256"
      },
      "t_string_storage": {
        "encoding": "bytes",
        "label": "string",
        "numberOfBytes": "32"
      },
      "t_uint256": {
        "encoding": "inplace",
        "label": "uint256",
        "numberOfBytes": "32"
      }
    }
  }
}