{
  "address": "0x6A20c5515a8098e2983eF06d2602B88961a86e2c",
  "abi": [
    {
      "inputs": [
        {
          "internalType": "string",
          "name": "name",
          "type": "string"
        },
        {
          "internalType": "string",
          "name": "symbol",
          "type": "string"
        },
        {
          "internalType": "address",
          "name": "identityService",
          "type": "address"
        },
        {
          "internalType": "uint256",
          "name": "supplyCap",
          "type": "uint256"
        }
      ],
      "stateMutability": "nonpayable",
      "type": "constructor"
    },
    {
      "anonymous": false,
      "inputs": [
        {
          "indexed": true,
          "internalType": "bytes32",
          "name": "owner",
          "type": "bytes32"
        },
        {
          "indexed": true,
          "internalType": "bytes32",
          "name": "spender",
          "type": "bytes32"
        },
        {
          "indexed": false,
          "internalType": "uint256",
          "name": "value",
          "type": "uint256"
        }
      ],
      "name": "Approval",
      "type": "event"
    },
    {
      "anonymous": false,
      "inputs": [
        {
          "indexed": true,
          "internalType": "address",
          "name": "owner",
          "type": "address"
        },
        {
          "indexed": true,
          "internalType": "address",
          "name": "spender",
          "type": "address"
        },
        {
          "indexed": false,
          "internalType": "uint256",
          "name": "value",
          "type": "uint256"
        }
      ],
      "name": "Approval",
      "type": "event"
    },
    {
      "anonymous": false,
      "inputs": [
        {
          "indexed": true,
          "internalType": "bytes32",
          "name": "delegator",
          "type": "bytes32"
        },
        {
          "indexed": true,
          "internalType": "bytes32",
          "name": "fromDelegate",
          "type": "bytes32"
        },
        {
          "indexed": true,
          "internalType": "bytes32",
          "name": "toDelegate",
          "type": "bytes32"
        }
      ],
      "name": "DelegateChanged",
      "type": "event"
    },
    {
      "anonymous": false,
      "inputs": [
        {
          "indexed": true,
          "internalType": "bytes32",
          "name": "delegate",
          "type": "bytes32"
        },
        {
          "indexed": false,
          "internalType": "uint256",
          "name": "previousBalance",
          "type": "uint256"
        },
        {
          "indexed": false,
          "internalType": "uint256",
          "name": "newBalance",
          "type": "uint256"
        }
      ],
      "name": "DelegateVotesChanged",
      "type": "event"
    },
    {
      "anonymous": false,
      "inputs": [
        {
          "indexed": true,
          "internalType": "address",
          "name": "previousOwner",
          "type": "address"
        },
        {
          "indexed": true,
          "internalType": "address",
          "name": "newOwner",
          "type": "address"
        }
      ],
      "name": "OwnershipTransferred",
      "type": "event"
    },
    {
      "anonymous": false,
      "inputs": [
        {
          "indexed": true,
          "internalType": "bytes32",
          "name": "from",
          "type": "bytes32"
        },
        {
          "indexed": true,
          "internalType": "bytes32",
          "name": "to",
          "type": "bytes32"
        },
        {
          "indexed": false,
          "internalType": "uint256",
          "name": "value",
          "type": "uint256"
        }
      ],
      "name": "Transfer",
      "type": "event"
    },
    {
      "anonymous": false,
      "inputs": [
        {
          "indexed": true,
          "internalType": "address",
          "name": "from",
          "type": "address"
        },
        {
          "indexed": true,
          "internalType": "address",
          "name": "to",
          "type": "address"
        },
        {
          "indexed": false,
          "internalType": "uint256",
          "name": "value",
          "type": "uint256"
        }
      ],
      "name": "Transfer",
      "type": "event"
    },
    {
      "inputs": [],
      "name": "ADDRESS_ZERO",
      "outputs": [
        {
          "internalType": "bytes32",
          "name": "",
          "type": "bytes32"
        }
      ],
      "stateMutability": "view",
      "type": "function"
    },
    {
      "inputs": [],
      "name": "DOMAIN_SEPARATOR",
      "outputs": [
        {
          "internalType": "bytes32",
          "name": "",
          "type": "bytes32"
        }
      ],
      "stateMutability": "view",
      "type": "function"
    },
    {
      "inputs": [
        {
          "internalType": "address",
          "name": "owner",
          "type": "address"
        },
        {
          "internalType": "address",
          "name": "spender",
          "type": "address"
        }
      ],
      "name": "allowance",
      "outputs": [
        {
          "internalType": "uint256",
          "name": "",
          "type": "uint256"
        }
      ],
      "stateMutability": "view",
      "type": "function"
    },
    {
      "inputs": [
        {
          "internalType": "bytes32",
          "name": "owner",
          "type": "bytes32"
        },
        {
          "internalType": "bytes32",
          "name": "spender",
          "type": "bytes32"
        }
      ],
      "name": "allowance",
      "outputs": [
        {
          "internalType": "uint256",
          "name": "",
          "type": "uint256"
        }
      ],
      "stateMutability": "view",
      "type": "function"
    },
    {
      "inputs": [
        {
          "internalType": "address",
          "name": "spender",
          "type": "address"
        },
        {
          "internalType": "uint256",
          "name": "amount",
          "type": "uint256"
        }
      ],
      "name": "approve",
      "outputs": [
        {
          "internalType": "bool",
          "name": "",
          "type": "bool"
        }
      ],
      "stateMutability": "nonpayable",
      "type": "function"
    },
    {
      "inputs": [
        {
          "internalType": "bytes32",
          "name": "owner",
          "type": "bytes32"
        },
        {
          "internalType": "bytes32",
          "name": "spender",
          "type": "bytes32"
        },
        {
          "internalType": "uint256",
          "name": "amount",
          "type": "uint256"
        }
      ],
      "name": "approve",
      "outputs": [
        {
          "internalType": "bool",
          "name": "",
          "type": "bool"
        }
      ],
      "stateMutability": "nonpayable",
      "type": "function"
    },
    {
      "inputs": [
        {
          "internalType": "bytes32",
          "name": "account",
          "type": "bytes32"
        }
      ],
      "name": "balanceOf",
      "outputs": [
        {
          "internalType": "uint256",
          "name": "",
          "type": "uint256"
        }
      ],
      "stateMutability": "view",
      "type": "function"
    },
    {
      "inputs": [
        {
          "internalType": "address",
          "name": "account",
          "type": "address"
        }
      ],
      "name": "balanceOf",
      "outputs": [
        {
          "internalType": "uint256",
          "name": "",
          "type": "uint256"
        }
      ],
      "stateMutability": "view",
      "type": "function"
    },
    {
      "inputs": [],
      "name": "cap",
      "outputs": [
        {
          "internalType": "uint256",
          "name": "",
          "type": "uint256"
        }
      ],
      "stateMutability": "view",
      "type": "function"
    },
    {
      "inputs": [
        {
          "internalType": "bytes32",
          "name": "account",
          "type": "bytes32"
        },
        {
          "internalType": "uint32",
          "name": "pos",
          "type": "uint32"
        }
      ],
      "name": "checkpoints",
      "outputs": [
        {
          "components": [
            {
              "internalType": "uint32",
              "name": "fromBlock",
              "type": "uint32"
            },
            {
              "internalType": "uint224",
              "name": "votes",
              "type": "uint224"
            }
          ],
          "internalType": "struct ERC20Votes.Checkpoint",
          "name": "",
          "type": "tuple"
        }
      ],
      "stateMutability": "view",
      "type": "function"
    },
    {
      "inputs": [],
      "name": "decimals",
      "outputs": [
        {
          "internalType": "uint8",
          "name": "",
          "type": "uint8"
        }
      ],
      "stateMutability": "view",
      "type": "function"
    },
    {
      "inputs": [
        {
          "internalType": "bytes32",
          "name": "owner",
          "type": "bytes32"
        },
        {
          "internalType": "bytes32",
          "name": "spender",
          "type": "bytes32"
        },
        {
          "internalType": "uint256",
          "name": "subtractedValue",
          "type": "uint256"
        }
      ],
      "name": "decreaseAllowance",
      "outputs": [
        {
          "internalType": "bool",
          "name": "",
          "type": "bool"
        }
      ],
      "stateMutability": "nonpayable",
      "type": "function"
    },
    {
      "inputs": [
        {
          "internalType": "address",
          "name": "spender",
          "type": "address"
        },
        {
          "internalType": "uint256",
          "name": "subtractedValue",
          "type": "uint256"
        }
      ],
      "name": "decreaseAllowance",
      "outputs": [
        {
          "internalType": "bool",
          "name": "",
          "type": "bool"
        }
      ],
      "stateMutability": "nonpayable",
      "type": "function"
    },
    {
      "inputs": [
        {
          "internalType": "bytes32",
          "name": "delegator",
          "type": "bytes32"
        },
        {
          "internalType": "bytes32",
          "name": "delegatee",
          "type": "bytes32"
        }
      ],
      "name": "delegate",
      "outputs": [],
      "stateMutability": "nonpayable",
      "type": "function"
    },
    {
      "inputs": [
        {
          "internalType": "bytes32",
          "name": "delegator",
          "type": "bytes32"
        },
        {
          "internalType": "bytes32",
          "name": "delegatee",
          "type": "bytes32"
        },
        {
          "internalType": "uint256",
          "name": "nonce",
          "type": "uint256"
        },
        {
          "internalType": "uint256",
          "name": "expiry",
          "type": "uint256"
        },
        {
          "internalType": "uint8",
          "name": "v",
          "type": "uint8"
        },
        {
          "internalType": "bytes32",
          "name": "r",
          "type": "bytes32"
        },
        {
          "internalType": "bytes32",
          "name": "s",
          "type": "bytes32"
        }
      ],
      "name": "delegateBySig",
      "outputs": [],
      "stateMutability": "nonpayable",
      "type": "function"
    },
    {
      "inputs": [
        {
          "internalType": "bytes32",
          "name": "account",
          "type": "bytes32"
        }
      ],
      "name": "delegates",
      "outputs": [
        {
          "internalType": "bytes32",
          "name": "",
          "type": "bytes32"
        }
      ],
      "stateMutability": "view",
      "type": "function"
    },
    {
      "inputs": [
        {
          "internalType": "uint256",
          "name": "blockNumber",
          "type": "uint256"
        }
      ],
      "name": "getPastTotalSupply",
      "outputs": [
        {
          "internalType": "uint256",
          "name": "",
          "type": "uint256"
        }
      ],
      "stateMutability": "view",
      "type": "function"
    },
    {
      "inputs": [
        {
          "internalType": "bytes32",
          "name": "account",
          "type": "bytes32"
        },
        {
          "internalType": "uint256",
          "name": "blockNumber",
          "type": "uint256"
        }
      ],
      "name": "getPastVotes",
      "outputs": [
        {
          "internalType": "uint256",
          "name": "",
          "type": "uint256"
        }
      ],
      "stateMutability": "view",
      "type": "function"
    },
    {
      "inputs": [
        {
          "internalType": "bytes32",
          "name": "account",
          "type": "bytes32"
        }
      ],
      "name": "getVotes",
      "outputs": [
        {
          "internalType": "uint256",
          "name": "",
          "type": "uint256"
        }
      ],
      "stateMutability": "view",
      "type": "function"
    },
    {
      "inputs": [],
      "name": "identityService",
      "outputs": [
        {
          "internalType": "address",
          "name": "",
          "type": "address"
        }
      ],
      "stateMutability": "view",
      "type": "function"
    },
    {
      "inputs": [
        {
          "internalType": "address",
          "name": "spender",
          "type": "address"
        },
        {
          "internalType": "uint256",
          "name": "addedValue",
          "type": "uint256"
        }
      ],
      "name": "increaseAllowance",
      "outputs": [
        {
          "internalType": "bool",
          "name": "",
          "type": "bool"
        }
      ],
      "stateMutability": "nonpayable",
      "type": "function"
    },
    {
      "inputs": [
        {
          "internalType": "bytes32",
          "name": "owner",
          "type": "bytes32"
        },
        {
          "internalType": "bytes32",
          "name": "spender",
          "type": "bytes32"
        },
        {
          "internalType": "uint256",
          "name": "addedValue",
          "type": "uint256"
        }
      ],
      "name": "increaseAllowance",
      "outputs": [
        {
          "internalType": "bool",
          "name": "",
          "type": "bool"
        }
      ],
      "stateMutability": "nonpayable",
      "type": "function"
    },
    {
      "inputs": [
        {
          "internalType": "bytes32",
          "name": "to",
          "type": "bytes32"
        },
        {
          "internalType": "uint256",
          "name": "amount",
          "type": "uint256"
        }
      ],
      "name": "mint",
      "outputs": [],
      "stateMutability": "nonpayable",
      "type": "function"
    },
    {
      "inputs": [],
      "name": "name",
      "outputs": [
        {
          "internalType": "string",
          "name": "",
          "type": "string"
        }
      ],
      "stateMutability": "view",
      "type": "function"
    },
    {
      "inputs": [
        {
          "internalType": "address",
          "name": "owner",
          "type": "address"
        }
      ],
      "name": "nonces",
      "outputs": [
        {
          "internalType": "uint256",
          "name": "",
          "type": "uint256"
        }
      ],
      "stateMutability": "view",
      "type": "function"
    },
    {
      "inputs": [
        {
          "internalType": "bytes32",
          "name": "owner",
          "type": "bytes32"
        }
      ],
      "name": "nonces",
      "outputs": [
        {
          "internalType": "uint256",
          "name": "",
          "type": "uint256"
        }
      ],
      "stateMutability": "view",
      "type": "function"
    },
    {
      "inputs": [
        {
          "internalType": "bytes32",
          "name": "account",
          "type": "bytes32"
        }
      ],
      "name": "numCheckpoints",
      "outputs": [
        {
          "internalType": "uint32",
          "name": "",
          "type": "uint32"
        }
      ],
      "stateMutability": "view",
      "type": "function"
    },
    {
      "inputs": [],
      "name": "owner",
      "outputs": [
        {
          "internalType": "address",
          "name": "",
          "type": "address"
        }
      ],
      "stateMutability": "view",
      "type": "function"
    },
    {
      "inputs": [
        {
          "internalType": "bytes32",
          "name": "owner",
          "type": "bytes32"
        },
        {
          "internalType": "bytes32",
          "name": "spender",
          "type": "bytes32"
        },
        {
          "internalType": "uint256",
          "name": "value",
          "type": "uint256"
        },
        {
          "internalType": "uint256",
          "name": "deadline",
          "type": "uint256"
        },
        {
          "internalType": "uint8",
          "name": "v",
          "type": "uint8"
        },
        {
          "internalType": "bytes32",
          "name": "r",
          "type": "bytes32"
        },
        {
          "internalType": "bytes32",
          "name": "s",
          "type": "bytes32"
        }
      ],
      "name": "permit",
      "outputs": [],
      "stateMutability": "nonpayable",
      "type": "function"
    },
    {
      "inputs": [
        {
          "internalType": "address",
          "name": "owner",
          "type": "address"
        },
        {
          "internalType": "address",
          "name": "spender",
          "type": "address"
        },
        {
          "internalType": "uint256",
          "name": "value",
          "type": "uint256"
        },
        {
          "internalType": "uint256",
          "name": "deadline",
          "type": "uint256"
        },
        {
          "internalType": "uint8",
          "name": "v",
          "type": "uint8"
        },
        {
          "internalType": "bytes32",
          "name": "r",
          "type": "bytes32"
        },
        {
          "internalType": "bytes32",
          "name": "s",
          "type": "bytes32"
        }
      ],
      "name": "permit",
      "outputs": [],
      "stateMutability": "nonpayable",
      "type": "function"
    },
    {
      "inputs": [],
      "name": "renounceOwnership",
      "outputs": [],
      "stateMutability": "nonpayable",
      "type": "function"
    },
    {
      "inputs": [],
      "name": "symbol",
      "outputs": [
        {
          "internalType": "string",
          "name": "",
          "type": "string"
        }
      ],
      "stateMutability": "view",
      "type": "function"
    },
    {
      "inputs": [],
      "name": "totalSupply",
      "outputs": [
        {
          "internalType": "uint256",
          "name": "",
          "type": "uint256"
        }
      ],
      "stateMutability": "view",
      "type": "function"
    },
    {
      "inputs": [
        {
          "internalType": "address",
          "name": "to",
          "type": "address"
        },
        {
          "internalType": "uint256",
          "name": "amount",
          "type": "uint256"
        }
      ],
      "name": "transfer",
      "outputs": [
        {
          "internalType": "bool",
          "name": "",
          "type": "bool"
        }
      ],
      "stateMutability": "nonpayable",
      "type": "function"
    },
    {
      "inputs": [
        {
          "internalType": "bytes32",
          "name": "from",
          "type": "bytes32"
        },
        {
          "internalType": "bytes32",
          "name": "to",
          "type": "bytes32"
        },
        {
          "internalType": "uint256",
          "name": "amount",
          "type": "uint256"
        }
      ],
      "name": "transfer",
      "outputs": [
        {
          "internalType": "bool",
          "name": "",
          "type": "bool"
        }
      ],
      "stateMutability": "nonpayable",
      "type": "function"
    },
    {
      "inputs": [
        {
          "internalType": "address",
          "name": "from",
          "type": "address"
        },
        {
          "internalType": "address",
          "name": "to",
          "type": "address"
        },
        {
          "internalType": "uint256",
          "name": "amount",
          "type": "uint256"
        }
      ],
      "name": "transferFrom",
      "outputs": [
        {
          "internalType": "bool",
          "name": "",
          "type": "bool"
        }
      ],
      "stateMutability": "nonpayable",
      "type": "function"
    },
    {
      "inputs": [
        {
          "internalType": "bytes32",
          "name": "delegator",
          "type": "bytes32"
        },
        {
          "internalType": "bytes32",
          "name": "from",
          "type": "bytes32"
        },
        {
          "internalType": "bytes32",
          "name": "to",
          "type": "bytes32"
        },
        {
          "internalType": "uint256",
          "name": "amount",
          "type": "uint256"
        }
      ],
      "name": "transferFrom",
      "outputs": [
        {
          "internalType": "bool",
          "name": "",
          "type": "bool"
        }
      ],
      "stateMutability": "nonpayable",
      "type": "function"
    },
    {
      "inputs": [
        {
          "internalType": "address",
          "name": "newOwner",
          "type": "address"
        }
      ],
      "name": "transferOwnership",
      "outputs": [],
      "stateMutability": "nonpayable",
      "type": "function"
    }
  ],
  "transactionHash": "0xd5e3d73bccebeb3203fbe5c09c1476335ffaa2721fa8ab1b6f9275aa9c432d24",
  "args": [
    "Bridge23",
    "B23",
    "0x92597283F95fcEC2ef664ab1f8b8C5D6ab6873cf",
    "10000000000000000000000000"
  ],
  "numDeployments": 5,
  "solcInputHash": "ccd8878d55e61fc270f2b9619362c624",
  "bytecode": "0x6101806040523480156200001257600080fd5b5060405162002c7d38038062002c7d833981016040819052620000359162000347565b8380604051806040016040528060018152602001603160f81b8152508387878782600390805190602001906200006d929190620001ee565b50815162000083906004906020850190620001ee565b5060601b6001600160601b03191660805250819050620000e95760405162461bcd60e51b815260206004820152601560248201527f45524332304361707065643a2063617020697320300000000000000000000000604482015260640160405180910390fd5b60a090815282516020938401208251928401929092206101208390526101408190524660e0819052604080517f8b73c3c69bb8fe3d512ecc4cf759cc79239f7b179b0ffacaa9a75d522b39400f818801819052818301969096526060818101949094526080810192909252308285018190528151808403909501855260c0928301909152835193909501929092209091529190911b61010052610160525062000192336200019c565b5050505062000429565b600980546001600160a01b038381166001600160a01b0319831681179093556040519116919082907f8be0079c531659141344cd1fd0a4f28419497f9722a3daafe3b4186f6b6457e090600090a35050565b828054620001fc90620003d6565b90600052602060002090601f0160209004810192826200022057600085556200026b565b82601f106200023b57805160ff19168380011785556200026b565b828001600101855582156200026b579182015b828111156200026b5782518255916020019190600101906200024e565b50620002799291506200027d565b5090565b5b808211156200027957600081556001016200027e565b600082601f830112620002a5578081fd5b81516001600160401b0380821115620002c257620002c262000413565b604051601f8301601f19908116603f01168101908282118183101715620002ed57620002ed62000413565b8160405283815260209250868385880101111562000309578485fd5b8491505b838210156200032c57858201830151818301840152908201906200030d565b838211156200033d57848385830101525b9695505050505050565b600080600080608085870312156200035d578384fd5b84516001600160401b038082111562000374578586fd5b620003828883890162000294565b9550602087015191508082111562000398578485fd5b50620003a78782880162000294565b604087015190945090506001600160a01b0381168114620003c6578283fd5b6060959095015193969295505050565b600181811c90821680620003eb57607f821691505b602082108114156200040d57634e487b7160e01b600052602260045260246000fd5b50919050565b634e487b7160e01b600052604160045260246000fd5b60805160601c60a05160c05160e0516101005160601c6101205161014051610160516127b0620004cd600039600061185b015260006118aa01526000611885015260006117de0152600061180801526000611832015260006106780152600081816104040152818161070b0152818161094a01528181610ab501528181610c5c01528181610e3c01528181611032015281816110c901526111ab01526127b06000f3fe608060405234801561001057600080fd5b50600436106101c15760003560e01c806226668d146101c657806306fdde03146101f3578063095ea7b31461020857806318160ddd1461022b5780631ff86a361461023d57806323b872dd14610250578063313ce56714610263578063355274ea146102725780633644e5151461027a57806339509351146102825780634641fd2d146102955780634c051100146102a857806366e79509146102bb5780636c7f1542146102d057806370a08231146102f0578063715018a6146103035780637ecebe001461030d5780638b0a59c1146103205780638d9015ec1461035d5780638da5cb5b146103705780638e539e8c1461038557806395d89b41146103985780639e317f12146103a0578063a457c2d7146103b3578063a9059cbb146103c6578063ae9f75e3146103d9578063c13f4cd9146103ec578063c39b3d9a146103ff578063cecce14e14610426578063d2b1521014610439578063d505accf1461044c578063db66e5d31461045f578063dc69fc8a14610472578063dd62ed3e14610485578063e0081b8c14610498578063e1856ff4146104ab578063f2a9a8c7146104be578063f2fde38b146104d1575b600080fd5b6101d96101d43660046123ce565b6104e4565b60405163ffffffff90911681526020015b60405180910390f35b6101fb610502565b6040516101ea91906124f9565b61021b6102163660046123a3565b610594565b60405190151581526020016101ea565b6002545b6040519081526020016101ea565b61022f61024b3660046123e6565b6105c5565b61021b61025e3660046122f6565b61060e565b604051601281526020016101ea565b61022f610676565b61022f61069a565b61021b6102903660046123a3565b6106a9565b61021b6102a3366004612438565b6106f9565b61022f6102b63660046123ce565b6107b5565b61022f60008051602061271b83398151915281565b61022f6102de3660046123ce565b60009081526020819052604090205490565b61022f6102fe366004612286565b610835565b61030b610862565b005b61022f61031b366004612286565b61089d565b61033361032e3660046124a2565b6108b4565b60408051825163ffffffff1681526020928301516001600160e01b031692810192909252016101ea565b61030b61036b3660046123e6565b61093b565b6103786109c7565b6040516101ea91906124ce565b61022f6103933660046123ce565b6109d6565b6101fb610a02565b61022f6103ae3660046123ce565b610a11565b61021b6103c13660046123a3565b610a25565b61021b6103d43660046123a3565b610a92565b61021b6103e7366004612438565b610aa1565b61030b6103fa366004612463565b610b2f565b6103787f000000000000000000000000000000000000000000000000000000000000000081565b61022f6104343660046123ce565b610d56565b61030b610447366004612463565b610d68565b61030b61045a366004612336565b610f01565b61021b61046d366004612407565b611020565b61021b610480366004612438565b6110b7565b61022f6104933660046122be565b611148565b61021b6104a6366004612438565b611199565b61030b6104b93660046123e6565b611225565b61022f6104cc3660046123e6565b61125e565b61030b6104df366004612286565b61127b565b6000818152600760205260408120546104fc9061131b565b92915050565b606060038054610511906126ba565b80601f016020809104026020016040519081016040528092919081815260200182805461053d906126ba565b801561058a5780601f1061055f5761010080835404028352916020019161058a565b820191906000526020600020905b81548152906001019060200180831161056d57829003601f168201915b5050505050905090565b6000336105bb6105a382611384565b6105b5866001600160a01b0316611384565b856113b4565b5060019392505050565b60004382106105ef5760405162461bcd60e51b81526004016105e69061254c565b60405180910390fd5b600083815260076020526040902061060790836114dd565b9392505050565b60003361063e6106266001600160a01b038716611384565b610638836001600160a01b0316611384565b856115b5565b61066b610653866001600160a01b0316611384565b610665866001600160a01b0316611384565b8561162f565b506001949350505050565b7f000000000000000000000000000000000000000000000000000000000000000090565b60006106a46117d1565b905090565b600033816106b682611384565b905060006106cc866001600160a01b0316611384565b90506106ed8282876106de868661125e565b6106e8919061266b565b6113b4565b50600195945050505050565b604051635f4c6aad60e11b81526000907f00000000000000000000000000000000000000000000000000000000000000006001600160a01b03169063be98d55a9061074a90879033906004016124e2565b60006040518083038186803b15801561076257600080fd5b505afa158015610776573d6000803e3d6000fd5b505050506000610786858561125e565b9050828110156107a85760405162461bcd60e51b81526004016105e690612626565b61066b85858584036113b4565b60008181526007602052604081205480156108225760008381526007602052604090206107e36001836126a3565b8154811061080157634e487b7160e01b600052603260045260246000fd5b600091825260209091200154600160201b90046001600160e01b0316610825565b60005b6001600160e01b03169392505050565b600080600061084c846001600160a01b0316611384565b8152602001908152602001600020549050919050565b3361086b6109c7565b6001600160a01b0316146108915760405162461bcd60e51b81526004016105e6906125f1565b61089b60006118f8565b565b60006104fc6103ae836001600160a01b0316611384565b60408051808201909152600080825260208201526000838152600760205260409020805463ffffffff84169081106108fc57634e487b7160e01b600052603260045260246000fd5b60009182526020918290206040805180820190915291015463ffffffff81168252600160201b90046001600160e01b0316918101919091529392505050565b604051635f4c6aad60e11b81527f00000000000000000000000000000000000000000000000000000000000000006001600160a01b03169063be98d55a9061098990859033906004016124e2565b60006040518083038186803b1580156109a157600080fd5b505afa1580156109b5573d6000803e3d6000fd5b505050506109c3828261194a565b5050565b6009546001600160a01b031690565b60004382106109f75760405162461bcd60e51b81526004016105e69061254c565b6104fc6008836114dd565b606060048054610511906126ba565b6000818152600560205260408120546104fc565b60003381610a3282611384565b90506000610a48866001600160a01b0316611384565b90506000610a56838361125e565b905085811015610a785760405162461bcd60e51b81526004016105e690612626565b610a8583838884036113b4565b5060019695505050505050565b6000336105bb61065382611384565b604051635f4c6aad60e11b815260009033907f00000000000000000000000000000000000000000000000000000000000000006001600160a01b03169063be98d55a90610af490889085906004016124e2565b60006040518083038186803b158015610b0c57600080fd5b505afa158015610b20573d6000803e3d6000fd5b5050505061066b85858561162f565b83421115610b7f5760405162461bcd60e51b815260206004820152601d60248201527f4552433230566f7465733a207369676e6174757265206578706972656400000060448201526064016105e6565b604080517f34266ba5d9886a1aa6730fe2a80b0ac458fd83adf18f276f8b17466fd1fc160a60208201529081018790526060810186905260808101859052600090610bee90610be69060a001604051602081830303815290604052805190602001206119a9565b8585856119f7565b9050610bf981611a1f565b8614610c435760405162461bcd60e51b81526020600482015260196024820152784552433230566f7465733a20696e76616c6964206e6f6e636560381b60448201526064016105e6565b6040516356cd17e360e11b8152600481018990526000907f00000000000000000000000000000000000000000000000000000000000000006001600160a01b03169063ad9a2fc69060240160206040518083038186803b158015610ca657600080fd5b505afa158015610cba573d6000803e3d6000fd5b505050506040513d601f19601f82011682018060405250810190610cde91906122a2565b9050806001600160a01b0316826001600160a01b031614610d415760405162461bcd60e51b815260206004820152601d60248201527f4552433230566f7465733a20696e76616c6964207369676e617475726500000060448201526064016105e6565b610d4b898961194a565b505050505050505050565b60009081526006602052604090205490565b83421115610d885760405162461bcd60e51b81526004016105e690612583565b60007ffb1223e5cb1575d94e632523d1af07b548e31a4110846225d21e52ce554a3d4f888888610db78c611a36565b6040805160208101969096528501939093526060840191909152608083015260a082015260c0810186905260e0016040516020818303038152906040528051906020012090506000610e08826119a9565b90506000610e18828787876119f7565b6040516356cd17e360e11b8152600481018c90529091506000906001600160a01b037f0000000000000000000000000000000000000000000000000000000000000000169063ad9a2fc69060240160206040518083038186803b158015610e7e57600080fd5b505afa158015610e92573d6000803e3d6000fd5b505050506040513d601f19601f82011682018060405250810190610eb691906122a2565b9050806001600160a01b0316826001600160a01b031614610ee95760405162461bcd60e51b81526004016105e6906125ba565b610ef48b8b8b6113b4565b5050505050505050505050565b83421115610f215760405162461bcd60e51b81526004016105e690612583565b6000610f35886001600160a01b0316611384565b905060007f6e71edae12b1b97f4d1f60370fef10105fa2faae0126114a169c64845d6126c9898989610f6686611a36565b6040805160208101969096526001600160a01b0394851690860152929091166060840152608083015260a082015260c0810187905260e0016040516020818303038152906040528051906020012090506000610fc1826119a9565b90506000610fd1828888886119f7565b90508a6001600160a01b0316816001600160a01b0316146110045760405162461bcd60e51b81526004016105e6906125ba565b610ef48461101a8c6001600160a01b0316611384565b8b6113b4565b604051635f4c6aad60e11b81526000907f00000000000000000000000000000000000000000000000000000000000000006001600160a01b03169063be98d55a9061107190889033906004016124e2565b60006040518083038186803b15801561108957600080fd5b505afa15801561109d573d6000803e3d6000fd5b505050506110ac8486846115b5565b61066b84848461162f565b604051635f4c6aad60e11b81526000907f00000000000000000000000000000000000000000000000000000000000000006001600160a01b03169063be98d55a9061110890879033906004016124e2565b60006040518083038186803b15801561112057600080fd5b505afa158015611134573d6000803e3d6000fd5b505050506105bb8484846106de888861125e565b600060016000611160856001600160a01b0316611384565b81526020019081526020016000206000611182846001600160a01b0316611384565b815260200190815260200160002054905092915050565b604051635f4c6aad60e11b81526000907f00000000000000000000000000000000000000000000000000000000000000006001600160a01b03169063be98d55a906111ea90879033906004016124e2565b60006040518083038186803b15801561120257600080fd5b505afa158015611216573d6000803e3d6000fd5b505050506105bb8484846113b4565b3361122e6109c7565b6001600160a01b0316146112545760405162461bcd60e51b81526004016105e6906125f1565b6109c38282611a54565b600091825260016020908152604080842092845291905290205490565b336112846109c7565b6001600160a01b0316146112aa5760405162461bcd60e51b81526004016105e6906125f1565b6001600160a01b03811661130f5760405162461bcd60e51b815260206004820152602660248201527f4f776e61626c653a206e6577206f776e657220697320746865207a65726f206160448201526564647265737360d01b60648201526084016105e6565b611318816118f8565b50565b600063ffffffff8211156113805760405162461bcd60e51b815260206004820152602660248201527f53616665436173743a2076616c756520646f65736e27742066697420696e203360448201526532206269747360d01b60648201526084016105e6565b5090565b60008160405160200161139791906124ce565b604051602081830303815290604052805190602001209050919050565b60008051602061271b83398151915283141561141e5760405162461bcd60e51b8152602060048201526024808201527f45524332303a20617070726f76652066726f6d20746865207a65726f206164646044820152637265737360e01b60648201526084016105e6565b60008051602061271b8339815191528214156114875760405162461bcd60e51b815260206004820152602260248201527f45524332303a20617070726f766520746f20746865207a65726f206164647265604482015261737360f01b60648201526084016105e6565b60008381526001602090815260408083208584528252918290208390559051828152839185917ff6d2c55c8d7458b3b22f5534fd41ebe91e2a7da94922c17c1fe9e4d209dca04a910160405180910390a3505050565b8154600090815b8181101561154f5760006114f88284611a5e565b90508486828154811061151b57634e487b7160e01b600052603260045260246000fd5b60009182526020909120015463ffffffff16111561153b57809250611549565b61154681600161266b565b91505b506114e4565b81156115a057846115616001846126a3565b8154811061157f57634e487b7160e01b600052603260045260246000fd5b600091825260209091200154600160201b90046001600160e01b03166115a3565b60005b6001600160e01b031695945050505050565b60006115c1848461125e565b90506000198114611629578181101561161c5760405162461bcd60e51b815260206004820152601d60248201527f45524332303a20696e73756666696369656e7420616c6c6f77616e636500000060448201526064016105e6565b61162984848484036113b4565b50505050565b60008051602061271b83398151915283141561169b5760405162461bcd60e51b815260206004820152602560248201527f45524332303a207472616e736665722066726f6d20746865207a65726f206164604482015264647265737360d81b60648201526084016105e6565b60008051602061271b8339815191528214156117055760405162461bcd60e51b815260206004820152602360248201527f45524332303a207472616e7366657220746f20746865207a65726f206164647260448201526265737360e81b60648201526084016105e6565b600083815260208190526040902054818110156117735760405162461bcd60e51b815260206004820152602660248201527f45524332303a207472616e7366657220616d6f756e7420657863656564732062604482015265616c616e636560d01b60648201526084016105e6565b60008481526020819052604080822084840390558482528120805484929061179c90849061266b565b90915550506040518281528390859060008051602061275b8339815191529060200160405180910390a3611629848484611a7e565b6000306001600160a01b037f00000000000000000000000000000000000000000000000000000000000000001614801561182a57507f000000000000000000000000000000000000000000000000000000000000000046145b1561185457507f000000000000000000000000000000000000000000000000000000000000000090565b50604080517f00000000000000000000000000000000000000000000000000000000000000006020808301919091527f0000000000000000000000000000000000000000000000000000000000000000828401527f000000000000000000000000000000000000000000000000000000000000000060608301524660808301523060a0808401919091528351808403909101815260c0909201909252805191012090565b600980546001600160a01b038381166001600160a01b0319831681179093556040519116919082907f8be0079c531659141344cd1fd0a4f28419497f9722a3daafe3b4186f6b6457e090600090a35050565b600061195583610d56565b60008481526020818152604080832054600690925280832086905551929350918491849187917f209796122531f82b7611ec866c6dbd42149c9e51fe94a4eaa48e6dafb73492e991a4611629828483611a89565b60006104fc6119b66117d1565b8360405161190160f01b6020820152602281018390526042810182905260009060620160405160208183030381529060405280519060200120905092915050565b6000806000611a0887878787611b76565b91509150611a1581611c59565b5095945050505050565b60006104fc611a36836001600160a01b0316611384565b60008181526005602052604090208054600181018255905b50919050565b6109c38282611e55565b6000611a6d6002848418612683565b6106079084841661266b565b505050565b611a79838383611edf565b818314158015611a995750600081115b15611a795760008051602061271b8339815191528314611b085760008381526007602052604081208190611ad090611efa85611f06565b915091508460008051602061273b8339815191528383604051611afd929190918252602082015260400190565b60405180910390a250505b60008051602061271b8339815191528214611a795760008281526007602052604081208190611b3a906120a785611f06565b915091508360008051602061273b8339815191528383604051611b67929190918252602082015260400190565b60405180910390a25050505050565b6000806fa2a8918ca85bafe22016d0b997e4df60600160ff1b03831115611ba35750600090506003611c50565b8460ff16601b14158015611bbb57508460ff16601c14155b15611bcc5750600090506004611c50565b6040805160008082526020820180845289905260ff881692820192909252606081018690526080810185905260019060a0016020604051602081039080840390855afa158015611c20573d6000803e3d6000fd5b5050604051601f1901519150506001600160a01b038116611c4957600060019250925050611c50565b9150600090505b94509492505050565b6000816004811115611c7b57634e487b7160e01b600052602160045260246000fd5b1415611c845750565b6001816004811115611ca657634e487b7160e01b600052602160045260246000fd5b1415611cef5760405162461bcd60e51b815260206004820152601860248201527745434453413a20696e76616c6964207369676e617475726560401b60448201526064016105e6565b6002816004811115611d1157634e487b7160e01b600052602160045260246000fd5b1415611d5f5760405162461bcd60e51b815260206004820152601f60248201527f45434453413a20696e76616c6964207369676e6174757265206c656e6774680060448201526064016105e6565b6003816004811115611d8157634e487b7160e01b600052602160045260246000fd5b1415611dda5760405162461bcd60e51b815260206004820152602260248201527f45434453413a20696e76616c6964207369676e6174757265202773272076616c604482015261756560f01b60648201526084016105e6565b6004816004811115611dfc57634e487b7160e01b600052602160045260246000fd5b14156113185760405162461bcd60e51b815260206004820152602260248201527f45434453413a20696e76616c6964207369676e6174757265202776272076616c604482015261756560f01b60648201526084016105e6565b611e5f82826120b3565b6002546001600160e01b031015611ed15760405162461bcd60e51b815260206004820152603060248201527f4552433230566f7465733a20746f74616c20737570706c79207269736b73206f60448201526f766572666c6f77696e6720766f74657360801b60648201526084016105e6565b61162960086120a783611f06565b611a79611eeb84610d56565b611ef484610d56565b83611a89565b600061060782846126a3565b825460009081908015611f5e5785611f1f6001836126a3565b81548110611f3d57634e487b7160e01b600052603260045260246000fd5b600091825260209091200154600160201b90046001600160e01b0316611f61565b60005b6001600160e01b03169250611f7a83858763ffffffff16565b9150600081118015611fc657504386611f946001846126a3565b81548110611fb257634e487b7160e01b600052603260045260246000fd5b60009182526020909120015463ffffffff16145b1561203457611fd482612123565b86611fe06001846126a3565b81548110611ffe57634e487b7160e01b600052603260045260246000fd5b9060005260206000200160000160046101000a8154816001600160e01b0302191690836001600160e01b0316021790555061209e565b8560405180604001604052806120494361131b565b63ffffffff16815260200161205d85612123565b6001600160e01b039081169091528254600181018455600093845260209384902083519490930151909116600160201b0263ffffffff909316929092179101555b50935093915050565b6000610607828461266b565b6120bb610676565b816120c560025490565b6120cf919061266b565b11156121195760405162461bcd60e51b8152602060048201526019602482015278115490cc8c10d85c1c19590e8818d85c08195e18d959591959603a1b60448201526064016105e6565b6109c3828261218c565b60006001600160e01b038211156113805760405162461bcd60e51b815260206004820152602760248201527f53616665436173743a2076616c756520646f65736e27742066697420696e20326044820152663234206269747360c81b60648201526084016105e6565b60008051602061271b8339815191528214156121ea5760405162461bcd60e51b815260206004820152601f60248201527f45524332303a206d696e7420746f20746865207a65726f20616464726573730060448201526064016105e6565b80600260008282546121fc919061266b565b90915550506000828152602081905260408120805483929061221f90849061266b565b9091555050604051818152829060008051602061271b8339815191529060008051602061275b8339815191529060200160405180910390a36109c360008051602061271b8339815191528383611a7e565b803560ff8116811461228157600080fd5b919050565b600060208284031215612297578081fd5b813561060781612705565b6000602082840312156122b3578081fd5b815161060781612705565b600080604083850312156122d0578081fd5b82356122db81612705565b915060208301356122eb81612705565b809150509250929050565b60008060006060848603121561230a578081fd5b833561231581612705565b9250602084013561232581612705565b929592945050506040919091013590565b600080600080600080600060e0888a031215612350578283fd5b873561235b81612705565b9650602088013561236b81612705565b9550604088013594506060880135935061238760808901612270565b925060a0880135915060c0880135905092959891949750929550565b600080604083850312156123b5578182fd5b82356123c081612705565b946020939093013593505050565b6000602082840312156123df578081fd5b5035919050565b600080604083850312156123f8578182fd5b50508035926020909101359150565b6000806000806080858703121561241c578384fd5b5050823594602084013594506040840135936060013592509050565b60008060006060848603121561244c578283fd5b505081359360208301359350604090920135919050565b600080600080600080600060e0888a03121561247d578283fd5b8735965060208801359550604088013594506060880135935061238760808901612270565b600080604083850312156124b4578182fd5b82359150602083013563ffffffff811681146122eb578182fd5b6001600160a01b0391909116815260200190565b9182526001600160a01b0316602082015260400190565b6000602080835283518082850152825b8181101561252557858101830151858201604001528201612509565b818111156125365783604083870101525b50601f01601f1916929092016040019392505050565b6020808252601f908201527f4552433230566f7465733a20626c6f636b206e6f7420796574206d696e656400604082015260600190565b6020808252601d908201527f45524332305065726d69743a206578706972656420646561646c696e65000000604082015260600190565b6020808252601e908201527f45524332305065726d69743a20696e76616c6964207369676e61747572650000604082015260600190565b6020808252818101527f4f776e61626c653a2063616c6c6572206973206e6f7420746865206f776e6572604082015260600190565b60208082526025908201527f45524332303a2064656372656173656420616c6c6f77616e63652062656c6f77604082015264207a65726f60d81b606082015260800190565b6000821982111561267e5761267e6126ef565b500190565b60008261269e57634e487b7160e01b81526012600452602481fd5b500490565b6000828210156126b5576126b56126ef565b500390565b600181811c908216806126ce57607f821691505b60208210811415611a4e57634e487b7160e01b600052602260045260246000fd5b634e487b7160e01b600052601160045260246000fd5b6001600160a01b038116811461131857600080fdfe290decd9548b62a8d60345a988386fc84ba6bc95484008f6362f93160ef3e563de0bfecee0b804b5c4c26d6c364e19a4c912886bee76fc601182976ac7c222cabc7a322f72742a0c810e1f76615f57ed3a5bbfcbd956d3d451b3158968faace9a264697066735822122027333af43819a4d356bba2aa58210a53f50c0cb32218182fd722a183c651793b64736f6c63430008040033",
  "devdoc": {
    "kind": "dev",
    "methods": {
      "DOMAIN_SEPARATOR()": {
        "details": "Returns the domain separator used in the encoding of the signature for {permit}, as defined by {EIP712}."
      },
      "allowance(address,address)": {
        "details": "Returns the remaining number of tokens that `spender` will be allowed to spend on behalf of `owner` through {transferFrom}. This is zero by default. This value changes when {approve} or {transferFrom} are called."
      },
      "approve(address,uint256)": {
        "details": "Sets `amount` as the allowance of `spender` over the caller's tokens. Returns a boolean value indicating whether the operation succeeded. IMPORTANT: Beware that changing an allowance with this method brings the risk that someone may use both the old and the new allowance by unfortunate transaction ordering. One possible solution to mitigate this race condition is to first reduce the spender's allowance to 0 and set the desired value afterwards: https://github.com/ethereum/EIPs/issues/20#issuecomment-263524729 Emits an {Approval} event."
      },
      "balanceOf(address)": {
        "details": "Returns the amount of tokens owned by `account`."
      },
      "decimals()": {
        "details": "Returns the decimals places of the token."
      },
      "name()": {
        "details": "Returns the name of the token."
      },
      "nonces(address)": {
        "details": "Returns the current nonce for `owner`. This value must be included whenever a signature is generated for {permit}. Every successful call to {permit} increases ``owner``'s nonce by one. This prevents a signature from being used multiple times."
      },
      "owner()": {
        "details": "Returns the address of the current owner."
      },
      "permit(address,address,uint256,uint256,uint8,bytes32,bytes32)": {
        "details": "Sets `value` as the allowance of `spender` over ``owner``'s tokens, given ``owner``'s signed approval. IMPORTANT: The same issues {IERC20-approve} has related to transaction ordering also apply here. Emits an {Approval} event. Requirements: - `spender` cannot be the zero address. - `deadline` must be a timestamp in the future. - `v`, `r` and `s` must be a valid `secp256k1` signature from `owner` over the EIP712-formatted function arguments. - the signature must use ``owner``'s current nonce (see {nonces}). For more information on the signature format, see the https://eips.ethereum.org/EIPS/eip-2612#specification[relevant EIP section]."
      },
      "renounceOwnership()": {
        "details": "Leaves the contract without owner. It will not be possible to call `onlyOwner` functions anymore. Can only be called by the current owner. NOTE: Renouncing ownership will leave the contract without an owner, thereby removing any functionality that is only available to the owner."
      },
      "symbol()": {
        "details": "Returns the symbol of the token."
      },
      "totalSupply()": {
        "details": "Returns the amount of tokens in existence."
      },
      "transfer(address,uint256)": {
        "details": "Moves `amount` tokens from the caller's account to `to`. Returns a boolean value indicating whether the operation succeeded. Emits a {Transfer} event."
      },
      "transferFrom(address,address,uint256)": {
        "details": "Moves `amount` tokens from `from` to `to` using the allowance mechanism. `amount` is then deducted from the caller's allowance. Returns a boolean value indicating whether the operation succeeded. Emits a {Transfer} event."
      },
      "transferOwnership(address)": {
        "details": "Transfers ownership of the contract to a new account (`newOwner`). Can only be called by the current owner."
      }
    },
    "version": 1
  },
  "userdoc": {
    "kind": "user",
    "methods": {},
    "version": 1
  },
  "storageLayout": {
    "storage": [
      {
        "astId": 2088,
        "contract": "contracts/Bridge23.sol:Bridge23",
        "label": "_balances",
        "offset": 0,
        "slot": "0",
        "type": "t_mapping(t_bytes32,t_uint256)"
      },
      {
        "astId": 2094,
        "contract": "contracts/Bridge23.sol:Bridge23",
        "label": "_allowances",
        "offset": 0,
        "slot": "1",
        "type": "t_mapping(t_bytes32,t_mapping(t_bytes32,t_uint256))"
      },
      {
        "astId": 2096,
        "contract": "contracts/Bridge23.sol:Bridge23",
        "label": "_totalSupply",
        "offset": 0,
        "slot": "2",
        "type": "t_uint256"
      },
      {
        "astId": 2098,
        "contract": "contracts/Bridge23.sol:Bridge23",
        "label": "_name",
        "offset": 0,
        "slot": "3",
        "type": "t_string_storage"
      },
      {
        "astId": 2100,
        "contract": "contracts/Bridge23.sol:Bridge23",
        "label": "_symbol",
        "offset": 0,
        "slot": "4",
        "type": "t_string_storage"
      },
      {
        "astId": 2949,
        "contract": "contracts/Bridge23.sol:Bridge23",
        "label": "_nonces",
        "offset": 0,
        "slot": "5",
        "type": "t_mapping(t_bytes32,t_struct(Counter)356_storage)"
      },
      {
        "astId": 3597,
        "contract": "contracts/Bridge23.sol:Bridge23",
        "label": "_delegates",
        "offset": 0,
        "slot": "6",
        "type": "t_mapping(t_bytes32,t_bytes32)"
      },
      {
        "astId": 3603,
        "contract": "contracts/Bridge23.sol:Bridge23",
        "label": "_checkpoints",
        "offset": 0,
        "slot": "7",
        "type": "t_mapping(t_bytes32,t_array(t_struct(Checkpoint)3583_storage)dyn_storage)"
      },
      {
        "astId": 3607,
        "contract": "contracts/Bridge23.sol:Bridge23",
        "label": "_totalSupplyCheckpoints",
        "offset": 0,
        "slot": "8",
        "type": "t_array(t_struct(Checkpoint)3583_storage)dyn_storage"
      },
      {
        "astId": 7,
        "contract": "contracts/Bridge23.sol:Bridge23",
        "label": "_owner",
        "offset": 0,
        "slot": "9",
        "type": "t_address"
      }
    ],
    "types": {
      "t_address": {
        "encoding": "inplace",
        "label": "address",
        "numberOfBytes": "20"
      },
      "t_array(t_struct(Checkpoint)3583_storage)dyn_storage": {
        "base": "t_struct(Checkpoint)3583_storage",
        "encoding": "dynamic_array",
        "label": "struct ERC20Votes.Checkpoint[]",
        "numberOfBytes": "32"
      },
      "t_bytes32": {
        "encoding": "inplace",
        "label": "bytes32",
        "numberOfBytes": "32"
      },
      "t_mapping(t_bytes32,t_array(t_struct(Checkpoint)3583_storage)dyn_storage)": {
        "encoding": "mapping",
        "key": "t_bytes32",
        "label": "mapping(bytes32 => struct ERC20Votes.Checkpoint[])",
        "numberOfBytes": "32",
        "value": "t_array(t_struct(Checkpoint)3583_storage)dyn_storage"
      },
      "t_mapping(t_bytes32,t_bytes32)": {
        "encoding": "mapping",
        "key": "t_bytes32",
        "label": "mapping(bytes32 => bytes32)",
        "numberOfBytes": "32",
        "value": "t_bytes32"
      },
      "t_mapping(t_bytes32,t_mapping(t_bytes32,t_uint256))": {
        "encoding": "mapping",
        "key": "t_bytes32",
        "label": "mapping(bytes32 => mapping(bytes32 => uint256))",
        "numberOfBytes": "32",
        "value": "t_mapping(t_bytes32,t_uint256)"
      },
      "t_mapping(t_bytes32,t_struct(Counter)356_storage)": {
        "encoding": "mapping",
        "key": "t_bytes32",
        "label": "mapping(bytes32 => struct Counters.Counter)",
        "numberOfBytes": "32",
        "value": "t_struct(Counter)356_storage"
      },
      "t_mapping(t_bytes32,t_uint256)": {
        "encoding": "mapping",
        "key": "t_bytes32",
        "label": "mapping(bytes32 => uint256)",
        "numberOfBytes": "32",
        "value": "t_uint256"
      },
      "t_string_storage": {
        "encoding": "bytes",
        "label": "string",
        "numberOfBytes": "32"
      },
      "t_struct(Checkpoint)3583_storage": {
        "encoding": "inplace",
        "label": "struct ERC20Votes.Checkpoint",
        "members": [
          {
            "astId": 3580,
            "contract": "contracts/Bridge23.sol:Bridge23",
            "label": "fromBlock",
            "offset": 0,
            "slot": "0",
            "type": "t_uint32"
          },
          {
            "astId": 3582,
            "contract": "contracts/Bridge23.sol:Bridge23",
            "label": "votes",
            "offset": 4,
            "slot": "0",
            "type": "t_uint224"
          }
        ],
        "numberOfBytes": "32"
      },
      "t_struct(Counter)356_storage": {
        "encoding": "inplace",
        "label": "struct Counters.Counter",
        "members": [
          {
            "astId": 355,
            "contract": "contracts/Bridge23.sol:Bridge23",
            "label": "_value",
            "offset": 0,
            "slot": "0",
            "type": "t_uint256"
          }
        ],
        "numberOfBytes": "32"
      },
      "t_uint224": {
        "encoding": "inplace",
        "label": "uint224",
        "numberOfBytes": "28"
      },
      "t_uint256": {
        "encoding": "inplace",
        "label": "uint256",
        "numberOfBytes": "32"
      },
      "t_uint32": {
        "encoding": "inplace",
        "label": "uint32",
        "numberOfBytes": "4"
      }
    }
  }
}