{
  "address": "0xe17ceA67Fdc824622D9544dE082e9B7b5AD1550F",
  "abi": [
    {
      "inputs": [
        {
          "internalType": "string",
          "name": "name",
          "type": "string"
        },
        {
          "internalType": "string",
          "name": "symbol",
          "type": "string"
        },
        {
          "internalType": "address",
          "name": "identityService",
          "type": "address"
        },
        {
          "internalType": "uint256",
          "name": "supplyCap",
          "type": "uint256"
        }
      ],
      "stateMutability": "nonpayable",
      "type": "constructor"
    },
    {
      "anonymous": false,
      "inputs": [
        {
          "indexed": true,
          "internalType": "bytes32",
          "name": "owner",
          "type": "bytes32"
        },
        {
          "indexed": true,
          "internalType": "bytes32",
          "name": "spender",
          "type": "bytes32"
        },
        {
          "indexed": false,
          "internalType": "uint256",
          "name": "value",
          "type": "uint256"
        }
      ],
      "name": "Approval",
      "type": "event"
    },
    {
      "anonymous": false,
      "inputs": [
        {
          "indexed": true,
          "internalType": "address",
          "name": "owner",
          "type": "address"
        },
        {
          "indexed": true,
          "internalType": "address",
          "name": "spender",
          "type": "address"
        },
        {
          "indexed": false,
          "internalType": "uint256",
          "name": "value",
          "type": "uint256"
        }
      ],
      "name": "Approval",
      "type": "event"
    },
    {
      "anonymous": false,
      "inputs": [
        {
          "indexed": true,
          "internalType": "address",
          "name": "previousOwner",
          "type": "address"
        },
        {
          "indexed": true,
          "internalType": "address",
          "name": "newOwner",
          "type": "address"
        }
      ],
      "name": "OwnershipTransferred",
      "type": "event"
    },
    {
      "anonymous": false,
      "inputs": [
        {
          "indexed": true,
          "internalType": "bytes32",
          "name": "from",
          "type": "bytes32"
        },
        {
          "indexed": true,
          "internalType": "bytes32",
          "name": "to",
          "type": "bytes32"
        },
        {
          "indexed": false,
          "internalType": "uint256",
          "name": "value",
          "type": "uint256"
        }
      ],
      "name": "Transfer",
      "type": "event"
    },
    {
      "anonymous": false,
      "inputs": [
        {
          "indexed": true,
          "internalType": "address",
          "name": "from",
          "type": "address"
        },
        {
          "indexed": true,
          "internalType": "address",
          "name": "to",
          "type": "address"
        },
        {
          "indexed": false,
          "internalType": "uint256",
          "name": "value",
          "type": "uint256"
        }
      ],
      "name": "Transfer",
      "type": "event"
    },
    {
      "inputs": [
        {
          "internalType": "address",
          "name": "owner",
          "type": "address"
        },
        {
          "internalType": "address",
          "name": "spender",
          "type": "address"
        }
      ],
      "name": "allowance",
      "outputs": [
        {
          "internalType": "uint256",
          "name": "",
          "type": "uint256"
        }
      ],
      "stateMutability": "view",
      "type": "function"
    },
    {
      "inputs": [
        {
          "internalType": "bytes32",
          "name": "owner",
          "type": "bytes32"
        },
        {
          "internalType": "bytes32",
          "name": "spender",
          "type": "bytes32"
        }
      ],
      "name": "allowance",
      "outputs": [
        {
          "internalType": "uint256",
          "name": "",
          "type": "uint256"
        }
      ],
      "stateMutability": "view",
      "type": "function"
    },
    {
      "inputs": [
        {
          "internalType": "address",
          "name": "spender",
          "type": "address"
        },
        {
          "internalType": "uint256",
          "name": "amount",
          "type": "uint256"
        }
      ],
      "name": "approve",
      "outputs": [
        {
          "internalType": "bool",
          "name": "",
          "type": "bool"
        }
      ],
      "stateMutability": "nonpayable",
      "type": "function"
    },
    {
      "inputs": [
        {
          "internalType": "bytes32",
          "name": "owner",
          "type": "bytes32"
        },
        {
          "internalType": "bytes32",
          "name": "spender",
          "type": "bytes32"
        },
        {
          "internalType": "uint256",
          "name": "amount",
          "type": "uint256"
        }
      ],
      "name": "approve",
      "outputs": [
        {
          "internalType": "bool",
          "name": "",
          "type": "bool"
        }
      ],
      "stateMutability": "nonpayable",
      "type": "function"
    },
    {
      "inputs": [
        {
          "internalType": "bytes32",
          "name": "account",
          "type": "bytes32"
        }
      ],
      "name": "balanceOf",
      "outputs": [
        {
          "internalType": "uint256",
          "name": "",
          "type": "uint256"
        }
      ],
      "stateMutability": "view",
      "type": "function"
    },
    {
      "inputs": [
        {
          "internalType": "address",
          "name": "account",
          "type": "address"
        }
      ],
      "name": "balanceOf",
      "outputs": [
        {
          "internalType": "uint256",
          "name": "",
          "type": "uint256"
        }
      ],
      "stateMutability": "view",
      "type": "function"
    },
    {
      "inputs": [],
      "name": "cap",
      "outputs": [
        {
          "internalType": "uint256",
          "name": "",
          "type": "uint256"
        }
      ],
      "stateMutability": "view",
      "type": "function"
    },
    {
      "inputs": [],
      "name": "decimals",
      "outputs": [
        {
          "internalType": "uint8",
          "name": "",
          "type": "uint8"
        }
      ],
      "stateMutability": "view",
      "type": "function"
    },
    {
      "inputs": [
        {
          "internalType": "bytes32",
          "name": "owner",
          "type": "bytes32"
        },
        {
          "internalType": "bytes32",
          "name": "spender",
          "type": "bytes32"
        },
        {
          "internalType": "uint256",
          "name": "subtractedValue",
          "type": "uint256"
        }
      ],
      "name": "decreaseAllowance",
      "outputs": [
        {
          "internalType": "bool",
          "name": "",
          "type": "bool"
        }
      ],
      "stateMutability": "nonpayable",
      "type": "function"
    },
    {
      "inputs": [
        {
          "internalType": "address",
          "name": "spender",
          "type": "address"
        },
        {
          "internalType": "uint256",
          "name": "subtractedValue",
          "type": "uint256"
        }
      ],
      "name": "decreaseAllowance",
      "outputs": [
        {
          "internalType": "bool",
          "name": "",
          "type": "bool"
        }
      ],
      "stateMutability": "nonpayable",
      "type": "function"
    },
    {
      "inputs": [],
      "name": "identityService",
      "outputs": [
        {
          "internalType": "address",
          "name": "",
          "type": "address"
        }
      ],
      "stateMutability": "view",
      "type": "function"
    },
    {
      "inputs": [
        {
          "internalType": "address",
          "name": "spender",
          "type": "address"
        },
        {
          "internalType": "uint256",
          "name": "addedValue",
          "type": "uint256"
        }
      ],
      "name": "increaseAllowance",
      "outputs": [
        {
          "internalType": "bool",
          "name": "",
          "type": "bool"
        }
      ],
      "stateMutability": "nonpayable",
      "type": "function"
    },
    {
      "inputs": [
        {
          "internalType": "bytes32",
          "name": "owner",
          "type": "bytes32"
        },
        {
          "internalType": "bytes32",
          "name": "spender",
          "type": "bytes32"
        },
        {
          "internalType": "uint256",
          "name": "addedValue",
          "type": "uint256"
        }
      ],
      "name": "increaseAllowance",
      "outputs": [
        {
          "internalType": "bool",
          "name": "",
          "type": "bool"
        }
      ],
      "stateMutability": "nonpayable",
      "type": "function"
    },
    {
      "inputs": [
        {
          "internalType": "address",
          "name": "to",
          "type": "address"
        },
        {
          "internalType": "uint256",
          "name": "amount",
          "type": "uint256"
        }
      ],
      "name": "mint",
      "outputs": [],
      "stateMutability": "nonpayable",
      "type": "function"
    },
    {
      "inputs": [
        {
          "internalType": "bytes32",
          "name": "to",
          "type": "bytes32"
        },
        {
          "internalType": "uint256",
          "name": "amount",
          "type": "uint256"
        }
      ],
      "name": "mint",
      "outputs": [],
      "stateMutability": "nonpayable",
      "type": "function"
    },
    {
      "inputs": [],
      "name": "name",
      "outputs": [
        {
          "internalType": "string",
          "name": "",
          "type": "string"
        }
      ],
      "stateMutability": "view",
      "type": "function"
    },
    {
      "inputs": [],
      "name": "owner",
      "outputs": [
        {
          "internalType": "address",
          "name": "",
          "type": "address"
        }
      ],
      "stateMutability": "view",
      "type": "function"
    },
    {
      "inputs": [],
      "name": "renounceOwnership",
      "outputs": [],
      "stateMutability": "nonpayable",
      "type": "function"
    },
    {
      "inputs": [],
      "name": "symbol",
      "outputs": [
        {
          "internalType": "string",
          "name": "",
          "type": "string"
        }
      ],
      "stateMutability": "view",
      "type": "function"
    },
    {
      "inputs": [],
      "name": "totalSupply",
      "outputs": [
        {
          "internalType": "uint256",
          "name": "",
          "type": "uint256"
        }
      ],
      "stateMutability": "view",
      "type": "function"
    },
    {
      "inputs": [
        {
          "internalType": "address",
          "name": "to",
          "type": "address"
        },
        {
          "internalType": "uint256",
          "name": "amount",
          "type": "uint256"
        }
      ],
      "name": "transfer",
      "outputs": [
        {
          "internalType": "bool",
          "name": "",
          "type": "bool"
        }
      ],
      "stateMutability": "nonpayable",
      "type": "function"
    },
    {
      "inputs": [
        {
          "internalType": "bytes32",
          "name": "from",
          "type": "bytes32"
        },
        {
          "internalType": "bytes32",
          "name": "to",
          "type": "bytes32"
        },
        {
          "internalType": "uint256",
          "name": "amount",
          "type": "uint256"
        }
      ],
      "name": "transfer",
      "outputs": [
        {
          "internalType": "bool",
          "name": "",
          "type": "bool"
        }
      ],
      "stateMutability": "nonpayable",
      "type": "function"
    },
    {
      "inputs": [
        {
          "internalType": "address",
          "name": "from",
          "type": "address"
        },
        {
          "internalType": "address",
          "name": "to",
          "type": "address"
        },
        {
          "internalType": "uint256",
          "name": "amount",
          "type": "uint256"
        }
      ],
      "name": "transferFrom",
      "outputs": [
        {
          "internalType": "bool",
          "name": "",
          "type": "bool"
        }
      ],
      "stateMutability": "nonpayable",
      "type": "function"
    },
    {
      "inputs": [
        {
          "internalType": "bytes32",
          "name": "delegator",
          "type": "bytes32"
        },
        {
          "internalType": "bytes32",
          "name": "from",
          "type": "bytes32"
        },
        {
          "internalType": "bytes32",
          "name": "to",
          "type": "bytes32"
        },
        {
          "internalType": "uint256",
          "name": "amount",
          "type": "uint256"
        }
      ],
      "name": "transferFrom",
      "outputs": [
        {
          "internalType": "bool",
          "name": "",
          "type": "bool"
        }
      ],
      "stateMutability": "nonpayable",
      "type": "function"
    },
    {
      "inputs": [
        {
          "internalType": "address",
          "name": "newOwner",
          "type": "address"
        }
      ],
      "name": "transferOwnership",
      "outputs": [],
      "stateMutability": "nonpayable",
      "type": "function"
    }
  ],
  "transactionHash": "0x44a2e69a82c7be9e25c7a6a49d190ae3ebb9f93b2d72914061f54363007dcb1a",
  "args": [
    "Bridge23",
    "B23",
    "0xc01F07dEf39E90C37D7765376E0A28F371266B23",
    "10000000000000000000000000"
  ],
  "numDeployments": 2,
  "solcInputHash": "e357845d8f6db2acd423a7f9b62ae31f",
  "bytecode": "0x60c06040523480156200001157600080fd5b506040516200165c3803806200165c83398101604081905262000034916200028f565b8084848482600390805190602001906200005092919062000136565b5081516200006690600490602085019062000136565b5060601b6001600160601b03191660805250819050620000cc5760405162461bcd60e51b815260206004820152601560248201527f45524332304361707065643a2063617020697320300000000000000000000000604482015260640160405180910390fd5b60a052620000da33620000e4565b5050505062000371565b600580546001600160a01b038381166001600160a01b0319831681179093556040519116919082907f8be0079c531659141344cd1fd0a4f28419497f9722a3daafe3b4186f6b6457e090600090a35050565b82805462000144906200031e565b90600052602060002090601f016020900481019282620001685760008555620001b3565b82601f106200018357805160ff1916838001178555620001b3565b82800160010185558215620001b3579182015b82811115620001b357825182559160200191906001019062000196565b50620001c1929150620001c5565b5090565b5b80821115620001c15760008155600101620001c6565b600082601f830112620001ed578081fd5b81516001600160401b03808211156200020a576200020a6200035b565b604051601f8301601f19908116603f011681019082821181831017156200023557620002356200035b565b8160405283815260209250868385880101111562000251578485fd5b8491505b8382101562000274578582018301518183018401529082019062000255565b838211156200028557848385830101525b9695505050505050565b60008060008060808587031215620002a5578384fd5b84516001600160401b0380821115620002bc578586fd5b620002ca88838901620001dc565b95506020870151915080821115620002e0578485fd5b50620002ef87828801620001dc565b604087015190945090506001600160a01b03811681146200030e578283fd5b6060959095015193969295505050565b600181811c908216806200033357607f821691505b602082108114156200035557634e487b7160e01b600052602260045260246000fd5b50919050565b634e487b7160e01b600052604160045260246000fd5b60805160601c60a05161129f620003bd600039600061045a01526000818161028601528181610535015281816106f5015281816107810152818161081801526108fa015261129f6000f3fe608060405234801561001057600080fd5b50600436106101335760003560e01c806306fdde0314610138578063095ea7b31461015657806318160ddd1461017957806323b872dd1461018b578063313ce5671461019e578063355274ea146101ad57806339509351146101b557806340c10f19146101c85780634641fd2d146101dd5780636c7f1542146101f057806370a0823114610210578063715018a6146102235780638da5cb5b1461022b57806395d89b4114610240578063a457c2d714610248578063a9059cbb1461025b578063ae9f75e31461026e578063c39b3d9a14610281578063db66e5d3146102a8578063dc69fc8a146102bb578063dd62ed3e146102ce578063e0081b8c146102e1578063e1856ff4146102f4578063f2a9a8c714610307578063f2fde38b1461031a575b600080fd5b61014061032d565b60405161014d91906110fd565b60405180910390f35b610169610164366004611014565b6103bf565b604051901515815260200161014d565b6002545b60405190815260200161014d565b610169610199366004610fd9565b6103f0565b6040516012815260200161014d565b61017d610458565b6101696101c3366004611014565b61047c565b6101db6101d6366004611014565b6104cc565b005b6101696101eb3660046110a7565b610523565b61017d6101fe36600461103d565b60009081526020819052604090205490565b61017d61021e366004610f86565b6105df565b6101db61060c565b610233610647565b60405161014d91906110d2565b610140610656565b610169610256366004611014565b610665565b610169610269366004611014565b6106d2565b61016961027c3660046110a7565b6106e1565b6102337f000000000000000000000000000000000000000000000000000000000000000081565b6101696102b6366004611076565b61076f565b6101696102c93660046110a7565b610806565b61017d6102dc366004610fa7565b610897565b6101696102ef3660046110a7565b6108e8565b6101db610302366004611055565b610974565b61017d610315366004611055565b6109ad565b6101db610328366004610f86565b6109ca565b60606003805461033c906111ee565b80601f0160208091040260200160405190810160405280929190818152602001828054610368906111ee565b80156103b55780601f1061038a576101008083540402835291602001916103b5565b820191906000526020600020905b81548152906001019060200180831161039857829003601f168201915b5050505050905090565b6000336103e66103ce82610a6a565b6103e0866001600160a01b0316610a6a565b85610a9a565b5060019392505050565b6000336104206104086001600160a01b038716610a6a565b61041a836001600160a01b0316610a6a565b85610bc3565b61044d610435866001600160a01b0316610a6a565b610447866001600160a01b0316610a6a565b85610c3d565b506001949350505050565b7f000000000000000000000000000000000000000000000000000000000000000090565b6000338161048982610a6a565b9050600061049f866001600160a01b0316610a6a565b90506104c08282876104b186866109ad565b6104bb91906111ca565b610a9a565b50600195945050505050565b336104d5610647565b6001600160a01b0316146105045760405162461bcd60e51b81526004016104fb90611150565b60405180910390fd5b61051f610519836001600160a01b0316610a6a565b82610dd9565b5050565b604051635f4c6aad60e11b81526000907f00000000000000000000000000000000000000000000000000000000000000006001600160a01b03169063be98d55a9061057490879033906004016110e6565b60006040518083038186803b15801561058c57600080fd5b505afa1580156105a0573d6000803e3d6000fd5b5050505060006105b085856109ad565b9050828110156105d25760405162461bcd60e51b81526004016104fb90611185565b61044d8585858403610a9a565b60008060006105f6846001600160a01b0316610a6a565b8152602001908152602001600020549050919050565b33610615610647565b6001600160a01b03161461063b5760405162461bcd60e51b81526004016104fb90611150565b6106456000610e49565b565b6005546001600160a01b031690565b60606004805461033c906111ee565b6000338161067282610a6a565b90506000610688866001600160a01b0316610a6a565b9050600061069683836109ad565b9050858110156106b85760405162461bcd60e51b81526004016104fb90611185565b6106c58383888403610a9a565b5060019695505050505050565b6000336103e661043582610a6a565b604051635f4c6aad60e11b815260009033907f00000000000000000000000000000000000000000000000000000000000000006001600160a01b03169063be98d55a9061073490889085906004016110e6565b60006040518083038186803b15801561074c57600080fd5b505afa158015610760573d6000803e3d6000fd5b5050505061044d858585610c3d565b604051635f4c6aad60e11b81526000907f00000000000000000000000000000000000000000000000000000000000000006001600160a01b03169063be98d55a906107c090889033906004016110e6565b60006040518083038186803b1580156107d857600080fd5b505afa1580156107ec573d6000803e3d6000fd5b505050506107fb848684610bc3565b61044d848484610c3d565b604051635f4c6aad60e11b81526000907f00000000000000000000000000000000000000000000000000000000000000006001600160a01b03169063be98d55a9061085790879033906004016110e6565b60006040518083038186803b15801561086f57600080fd5b505afa158015610883573d6000803e3d6000fd5b505050506103e68484846104b188886109ad565b6000600160006108af856001600160a01b0316610a6a565b815260200190815260200160002060006108d1846001600160a01b0316610a6a565b815260200190815260200160002054905092915050565b604051635f4c6aad60e11b81526000907f00000000000000000000000000000000000000000000000000000000000000006001600160a01b03169063be98d55a9061093990879033906004016110e6565b60006040518083038186803b15801561095157600080fd5b505afa158015610965573d6000803e3d6000fd5b505050506103e6848484610a9a565b3361097d610647565b6001600160a01b0316146109a35760405162461bcd60e51b81526004016104fb90611150565b61051f8282610dd9565b600091825260016020908152604080842092845291905290205490565b336109d3610647565b6001600160a01b0316146109f95760405162461bcd60e51b81526004016104fb90611150565b6001600160a01b038116610a5e5760405162461bcd60e51b815260206004820152602660248201527f4f776e61626c653a206e6577206f776e657220697320746865207a65726f206160448201526564647265737360d01b60648201526084016104fb565b610a6781610e49565b50565b600081604051602001610a7d91906110d2565b604051602081830303815290604052805190602001209050919050565b60008051602061122a833981519152831415610b045760405162461bcd60e51b8152602060048201526024808201527f45524332303a20617070726f76652066726f6d20746865207a65726f206164646044820152637265737360e01b60648201526084016104fb565b60008051602061122a833981519152821415610b6d5760405162461bcd60e51b815260206004820152602260248201527f45524332303a20617070726f766520746f20746865207a65726f206164647265604482015261737360f01b60648201526084016104fb565b60008381526001602090815260408083208584528252918290208390559051828152839185917ff6d2c55c8d7458b3b22f5534fd41ebe91e2a7da94922c17c1fe9e4d209dca04a910160405180910390a3505050565b6000610bcf84846109ad565b90506000198114610c375781811015610c2a5760405162461bcd60e51b815260206004820152601d60248201527f45524332303a20696e73756666696369656e7420616c6c6f77616e636500000060448201526064016104fb565b610c378484848403610a9a565b50505050565b60008051602061122a833981519152831415610ca95760405162461bcd60e51b815260206004820152602560248201527f45524332303a207472616e736665722066726f6d20746865207a65726f206164604482015264647265737360d81b60648201526084016104fb565b60008051602061122a833981519152821415610d135760405162461bcd60e51b815260206004820152602360248201527f45524332303a207472616e7366657220746f20746865207a65726f206164647260448201526265737360e81b60648201526084016104fb565b60008381526020819052604090205481811015610d815760405162461bcd60e51b815260206004820152602660248201527f45524332303a207472616e7366657220616d6f756e7420657863656564732062604482015265616c616e636560d01b60648201526084016104fb565b600084815260208190526040808220848403905584825281208054849290610daa9084906111ca565b90915550506040518281528390859060008051602061124a8339815191529060200160405180910390a3610c37565b610de1610458565b81610deb60025490565b610df591906111ca565b1115610e3f5760405162461bcd60e51b8152602060048201526019602482015278115490cc8c10d85c1c19590e8818d85c08195e18d959591959603a1b60448201526064016104fb565b61051f8282610e9b565b600580546001600160a01b038381166001600160a01b0319831681179093556040519116919082907f8be0079c531659141344cd1fd0a4f28419497f9722a3daafe3b4186f6b6457e090600090a35050565b60008051602061122a833981519152821415610ef95760405162461bcd60e51b815260206004820152601f60248201527f45524332303a206d696e7420746f20746865207a65726f20616464726573730060448201526064016104fb565b8060026000828254610f0b91906111ca565b909155505060008281526020819052604081208054839290610f2e9084906111ca565b9091555050604051818152829060008051602061122a8339815191529060008051602061124a8339815191529060200160405180910390a35050565b80356001600160a01b0381168114610f8157600080fd5b919050565b600060208284031215610f97578081fd5b610fa082610f6a565b9392505050565b60008060408385031215610fb9578081fd5b610fc283610f6a565b9150610fd060208401610f6a565b90509250929050565b600080600060608486031215610fed578081fd5b610ff684610f6a565b925061100460208501610f6a565b9150604084013590509250925092565b60008060408385031215611026578182fd5b61102f83610f6a565b946020939093013593505050565b60006020828403121561104e578081fd5b5035919050565b60008060408385031215611067578182fd5b50508035926020909101359150565b6000806000806080858703121561108b578081fd5b5050823594602084013594506040840135936060013592509050565b6000806000606084860312156110bb578283fd5b505081359360208301359350604090920135919050565b6001600160a01b0391909116815260200190565b9182526001600160a01b0316602082015260400190565b6000602080835283518082850152825b818110156111295785810183015185820160400152820161110d565b8181111561113a5783604083870101525b50601f01601f1916929092016040019392505050565b6020808252818101527f4f776e61626c653a2063616c6c6572206973206e6f7420746865206f776e6572604082015260600190565b60208082526025908201527f45524332303a2064656372656173656420616c6c6f77616e63652062656c6f77604082015264207a65726f60d81b606082015260800190565b600082198211156111e957634e487b7160e01b81526011600452602481fd5b500190565b600181811c9082168061120257607f821691505b6020821081141561122357634e487b7160e01b600052602260045260246000fd5b5091905056fe290decd9548b62a8d60345a988386fc84ba6bc95484008f6362f93160ef3e563bc7a322f72742a0c810e1f76615f57ed3a5bbfcbd956d3d451b3158968faace9a2646970667358221220beaad46c70d4f322d603016aa10c1895bf431b93a89fbbb7be8a4ec334e41c5f64736f6c63430008040033",
  "devdoc": {
    "kind": "dev",
    "methods": {
      "allowance(address,address)": {
        "details": "Returns the remaining number of tokens that `spender` will be allowed to spend on behalf of `owner` through {transferFrom}. This is zero by default. This value changes when {approve} or {transferFrom} are called."
      },
      "approve(address,uint256)": {
        "details": "Sets `amount` as the allowance of `spender` over the caller's tokens. Returns a boolean value indicating whether the operation succeeded. IMPORTANT: Beware that changing an allowance with this method brings the risk that someone may use both the old and the new allowance by unfortunate transaction ordering. One possible solution to mitigate this race condition is to first reduce the spender's allowance to 0 and set the desired value afterwards: https://github.com/ethereum/EIPs/issues/20#issuecomment-263524729 Emits an {Approval} event."
      },
      "balanceOf(address)": {
        "details": "Returns the amount of tokens owned by `account`."
      },
      "decimals()": {
        "details": "Returns the decimals places of the token."
      },
      "name()": {
        "details": "Returns the name of the token."
      },
      "owner()": {
        "details": "Returns the address of the current owner."
      },
      "renounceOwnership()": {
        "details": "Leaves the contract without owner. It will not be possible to call `onlyOwner` functions anymore. Can only be called by the current owner. NOTE: Renouncing ownership will leave the contract without an owner, thereby removing any functionality that is only available to the owner."
      },
      "symbol()": {
        "details": "Returns the symbol of the token."
      },
      "totalSupply()": {
        "details": "Returns the amount of tokens in existence."
      },
      "transfer(address,uint256)": {
        "details": "Moves `amount` tokens from the caller's account to `to`. Returns a boolean value indicating whether the operation succeeded. Emits a {Transfer} event."
      },
      "transferFrom(address,address,uint256)": {
        "details": "Moves `amount` tokens from `from` to `to` using the allowance mechanism. `amount` is then deducted from the caller's allowance. Returns a boolean value indicating whether the operation succeeded. Emits a {Transfer} event."
      },
      "transferOwnership(address)": {
        "details": "Transfers ownership of the contract to a new account (`newOwner`). Can only be called by the current owner."
      }
    },
    "version": 1
  },
  "userdoc": {
    "kind": "user",
    "methods": {},
    "version": 1
  },
  "storageLayout": {
    "storage": [
      {
        "astId": 337,
        "contract": "contracts/Bridge23.sol:Bridge23",
        "label": "_balances",
        "offset": 0,
        "slot": "0",
        "type": "t_mapping(t_bytes32,t_uint256)"
      },
      {
        "astId": 343,
        "contract": "contracts/Bridge23.sol:Bridge23",
        "label": "_allowances",
        "offset": 0,
        "slot": "1",
        "type": "t_mapping(t_bytes32,t_mapping(t_bytes32,t_uint256))"
      },
      {
        "astId": 345,
        "contract": "contracts/Bridge23.sol:Bridge23",
        "label": "_totalSupply",
        "offset": 0,
        "slot": "2",
        "type": "t_uint256"
      },
      {
        "astId": 347,
        "contract": "contracts/Bridge23.sol:Bridge23",
        "label": "_name",
        "offset": 0,
        "slot": "3",
        "type": "t_string_storage"
      },
      {
        "astId": 349,
        "contract": "contracts/Bridge23.sol:Bridge23",
        "label": "_symbol",
        "offset": 0,
        "slot": "4",
        "type": "t_string_storage"
      },
      {
        "astId": 7,
        "contract": "contracts/Bridge23.sol:Bridge23",
        "label": "_owner",
        "offset": 0,
        "slot": "5",
        "type": "t_address"
      }
    ],
    "types": {
      "t_address": {
        "encoding": "inplace",
        "label": "address",
        "numberOfBytes": "20"
      },
      "t_bytes32": {
        "encoding": "inplace",
        "label": "bytes32",
        "numberOfBytes": "32"
      },
      "t_mapping(t_bytes32,t_mapping(t_bytes32,t_uint256))": {
        "encoding": "mapping",
        "key": "t_bytes32",
        "label": "mapping(bytes32 => mapping(bytes32 => uint256))",
        "numberOfBytes": "32",
        "value": "t_mapping(t_bytes32,t_uint256)"
      },
      "t_mapping(t_bytes32,t_uint256)": {
        "encoding": "mapping",
        "key": "t_bytes32",
        "label": "mapping(bytes32 => uint256)",
        "numberOfBytes": "32",
        "value": "t_uint256"
      },
      "t_string_storage": {
        "encoding": "bytes",
        "label": "string",
        "numberOfBytes": "32"
      },
      "t_uint256": {
        "encoding": "inplace",
        "label": "uint256",
        "numberOfBytes": "32"
      }
    }
  }
}