{
  "address": "0xc01F07dEf39E90C37D7765376E0A28F371266B23",
  "abi": [
    {
      "anonymous": false,
      "inputs": [
        {
          "indexed": true,
          "internalType": "bytes32",
          "name": "id",
          "type": "bytes32"
        },
        {
          "indexed": true,
          "internalType": "address",
          "name": "authenticator",
          "type": "address"
        }
      ],
      "name": "AuthKeyUpdate",
      "type": "event"
    },
    {
      "inputs": [
        {
          "internalType": "bytes32",
          "name": "id",
          "type": "bytes32"
        }
      ],
      "name": "authKey",
      "outputs": [
        {
          "internalType": "address",
          "name": "",
          "type": "address"
        }
      ],
      "stateMutability": "view",
      "type": "function"
    },
    {
      "inputs": [
        {
          "internalType": "bytes32",
          "name": "id",
          "type": "bytes32"
        },
        {
          "internalType": "address",
          "name": "operator",
          "type": "address"
        }
      ],
      "name": "authenticate",
      "outputs": [],
      "stateMutability": "view",
      "type": "function"
    },
    {
      "inputs": [
        {
          "internalType": "bytes32",
          "name": "id",
          "type": "bytes32"
        },
        {
          "internalType": "address",
          "name": "newAuthKey",
          "type": "address"
        }
      ],
      "name": "setAuthKey",
      "outputs": [],
      "stateMutability": "nonpayable",
      "type": "function"
    }
  ],
  "transactionHash": "0x31567330aeda8ae8157d7f661504aaaac06be5d7649df6238bdc804045779da5",
  "args": [],
  "numDeployments": 1,
  "solcInputHash": "e357845d8f6db2acd423a7f9b62ae31f",
  "bytecode": "0x608060405234801561001057600080fd5b50610298806100206000396000f3fe608060405234801561001057600080fd5b50600436106100415760003560e01c8063ad9a2fc614610046578063be98d55a1461006f578063ec42b0db14610084575b600080fd5b6100596100543660046101fc565b610097565b604051610066919061024e565b60405180910390f35b61008261007d366004610214565b6100b2565b005b610082610092366004610214565b610169565b6000908152602081905260409020546001600160a01b031690565b816100c5826001600160a01b03166101cc565b14156100cf575050565b60006100da83610097565b90506001600160a01b03811615806101035750816001600160a01b0316816001600160a01b0316145b6101645760405162461bcd60e51b815260206004820152602860248201527f4964656e74697479536572766963653a206f70657261746f72206e6f742061756044820152671d1a1bdc9a5e995960c21b606482015260840160405180910390fd5b505050565b61017382336100b2565b60008281526020819052604080822080546001600160a01b0319166001600160a01b0385169081179091559051909184917f54f39fc7b0e71d32cb7e22fbf6e7e749bb3c93497a20c7e1f3079699ab5dc2ac9190a35050565b6000816040516020016101df919061024e565b604051602081830303815290604052805190602001209050919050565b60006020828403121561020d578081fd5b5035919050565b60008060408385031215610226578081fd5b8235915060208301356001600160a01b0381168114610243578182fd5b809150509250929050565b6001600160a01b039190911681526020019056fea26469706673582212200a2e5cd19017319f211c71a0efdb32af4c449112f1e6fc45f4e4f461b00b63b764736f6c63430008040033",
  "devdoc": {
    "kind": "dev",
    "methods": {},
    "version": 1
  },
  "userdoc": {
    "kind": "user",
    "methods": {},
    "version": 1
  },
  "storageLayout": {
    "storage": [
      {
        "astId": 1213,
        "contract": "contracts/IdentityService.sol:IdentityService",
        "label": "_authKeys",
        "offset": 0,
        "slot": "0",
        "type": "t_mapping(t_bytes32,t_address)"
      }
    ],
    "types": {
      "t_address": {
        "encoding": "inplace",
        "label": "address",
        "numberOfBytes": "20"
      },
      "t_bytes32": {
        "encoding": "inplace",
        "label": "bytes32",
        "numberOfBytes": "32"
      },
      "t_mapping(t_bytes32,t_address)": {
        "encoding": "mapping",
        "key": "t_bytes32",
        "label": "mapping(bytes32 => address)",
        "numberOfBytes": "32",
        "value": "t_address"
      }
    }
  }
}