{
  "address": "0xAbAaC3B10E8730E1Ce186338A75cE701eb1700E8",
  "abi": [
    {
      "anonymous": false,
      "inputs": [
        {
          "indexed": true,
          "internalType": "bytes32",
          "name": "id",
          "type": "bytes32"
        },
        {
          "indexed": true,
          "internalType": "address",
          "name": "authenticator",
          "type": "address"
        }
      ],
      "name": "AuthKeyUpdate",
      "type": "event"
    },
    {
      "anonymous": false,
      "inputs": [
        {
          "indexed": true,
          "internalType": "bytes32",
          "name": "id",
          "type": "bytes32"
        },
        {
          "indexed": true,
          "internalType": "address",
          "name": "authKey",
          "type": "address"
        },
        {
          "indexed": false,
          "internalType": "string",
          "name": "username",
          "type": "string"
        }
      ],
      "name": "Register",
      "type": "event"
    },
    {
      "inputs": [
        {
          "internalType": "bytes32",
          "name": "id",
          "type": "bytes32"
        }
      ],
      "name": "authKey",
      "outputs": [
        {
          "internalType": "address",
          "name": "",
          "type": "address"
        }
      ],
      "stateMutability": "view",
      "type": "function"
    },
    {
      "inputs": [
        {
          "internalType": "bytes32",
          "name": "id",
          "type": "bytes32"
        },
        {
          "internalType": "address",
          "name": "operator",
          "type": "address"
        }
      ],
      "name": "authenticate",
      "outputs": [],
      "stateMutability": "view",
      "type": "function"
    },
    {
      "inputs": [
        {
          "internalType": "string",
          "name": "username_",
          "type": "string"
        },
        {
          "internalType": "address",
          "name": "authKey_",
          "type": "address"
        }
      ],
      "name": "register",
      "outputs": [],
      "stateMutability": "nonpayable",
      "type": "function"
    },
    {
      "inputs": [
        {
          "internalType": "bytes32",
          "name": "id",
          "type": "bytes32"
        },
        {
          "internalType": "address",
          "name": "newAuthKey",
          "type": "address"
        }
      ],
      "name": "updateAuthKey",
      "outputs": [],
      "stateMutability": "nonpayable",
      "type": "function"
    },
    {
      "inputs": [
        {
          "internalType": "bytes32",
          "name": "id",
          "type": "bytes32"
        }
      ],
      "name": "username",
      "outputs": [
        {
          "internalType": "string",
          "name": "",
          "type": "string"
        }
      ],
      "stateMutability": "view",
      "type": "function"
    }
  ],
  "transactionHash": "0xa46c8a9ff2a2e01aec585d065179d69048a9252b91074e5ee67fc5dca774f0c7",
  "args": [],
  "numDeployments": 2,
  "solcInputHash": "ba1a2fff3b46e926ec4c6059bde08236",
  "bytecode": "0x608060405234801561001057600080fd5b506106ba806100206000396000f3fe608060405234801561001057600080fd5b50600436106100575760003560e01c80631e59c5291461005c5780638f37ad29146100715780639485133a1461009a578063ad9a2fc6146100ad578063be98d55a146100cd575b600080fd5b61006f61006a366004610519565b6100e0565b005b61008461007f3660046104d6565b610230565b60405161009191906105e0565b60405180910390f35b61006f6100a83660046104ee565b6102d2565b6100c06100bb3660046104d6565b610338565b60405161009191906105cc565b61006f6100db3660046104ee565b610356565b6000826040516020016100f391906105e0565b60405160208183030381529060405280519060200120905060006001600160a01b031661011f82610338565b6001600160a01b0316146101865760405162461bcd60e51b815260206004820152602360248201527f4964656e74697479536572766963653a20616c726561647920726567697374656044820152621c995960ea1b60648201526084015b60405180910390fd5b6040805180820182528481526001600160a01b03841660208083019190915260008481528082529290922081518051929391926101c69284920190610421565b5060209190910151600190910180546001600160a01b0319166001600160a01b039283161790556040519083169082907fa3f8ab5a398eae5d4e5b92373d1de9ebce1cb9fe46ac1d136dac922d456dff74906102239087906105e0565b60405180910390a3505050565b600081815260208190526040902080546060919061024d90610633565b80601f016020809104026020016040519081016040528092919081815260200182805461027990610633565b80156102c65780601f1061029b576101008083540402835291602001916102c6565b820191906000526020600020905b8154815290600101906020018083116102a957829003601f168201915b50505050509050919050565b6102dc8233610356565b60008281526020819052604080822060010180546001600160a01b0319166001600160a01b0385169081179091559051909184917f54f39fc7b0e71d32cb7e22fbf6e7e749bb3c93497a20c7e1f3079699ab5dc2ac9190a35050565b6000908152602081905260409020600101546001600160a01b031690565b81610369826001600160a01b03166103f1565b1415610373575050565b806001600160a01b031661038683610338565b6001600160a01b0316146103ed5760405162461bcd60e51b815260206004820152602860248201527f4964656e74697479536572766963653a206f70657261746f72206e6f742061756044820152671d1a1bdc9a5e995960c21b606482015260840161017d565b5050565b60008160405160200161040491906105cc565b604051602081830303815290604052805190602001209050919050565b82805461042d90610633565b90600052602060002090601f01602090048101928261044f5760008555610495565b82601f1061046857805160ff1916838001178555610495565b82800160010185558215610495579182015b8281111561049557825182559160200191906001019061047a565b506104a19291506104a5565b5090565b5b808211156104a157600081556001016104a6565b80356001600160a01b03811681146104d157600080fd5b919050565b6000602082840312156104e7578081fd5b5035919050565b60008060408385031215610500578081fd5b82359150610510602084016104ba565b90509250929050565b6000806040838503121561052b578182fd5b82356001600160401b0380821115610541578384fd5b818501915085601f830112610554578384fd5b8135818111156105665761056661066e565b604051601f8201601f19908116603f0116810190838211818310171561058e5761058e61066e565b816040528281528860208487010111156105a6578687fd5b8260208601602083013786602084830101528096505050505050610510602084016104ba565b6001600160a01b0391909116815260200190565b6000602080835283518082850152825b8181101561060c578581018301518582016040015282016105f0565b8181111561061d5783604083870101525b50601f01601f1916929092016040019392505050565b600181811c9082168061064757607f821691505b6020821081141561066857634e487b7160e01b600052602260045260246000fd5b50919050565b634e487b7160e01b600052604160045260246000fdfea264697066735822122049375a41269a07c5aca515432a5ebaa4e7b90f1df47a4b6752d06f8e2cb8d3e064736f6c63430008040033",
  "devdoc": {
    "kind": "dev",
    "methods": {},
    "version": 1
  },
  "userdoc": {
    "kind": "user",
    "methods": {},
    "version": 1
  },
  "storageLayout": {
    "storage": [
      {
        "astId": 1235,
        "contract": "contracts/IdentityService.sol:IdentityService",
        "label": "_identities",
        "offset": 0,
        "slot": "0",
        "type": "t_mapping(t_bytes32,t_struct(Identity)1230_storage)"
      }
    ],
    "types": {
      "t_address": {
        "encoding": "inplace",
        "label": "address",
        "numberOfBytes": "20"
      },
      "t_bytes32": {
        "encoding": "inplace",
        "label": "bytes32",
        "numberOfBytes": "32"
      },
      "t_mapping(t_bytes32,t_struct(Identity)1230_storage)": {
        "encoding": "mapping",
        "key": "t_bytes32",
        "label": "mapping(bytes32 => struct IdentityService.Identity)",
        "numberOfBytes": "32",
        "value": "t_struct(Identity)1230_storage"
      },
      "t_string_storage": {
        "encoding": "bytes",
        "label": "string",
        "numberOfBytes": "32"
      },
      "t_struct(Identity)1230_storage": {
        "encoding": "inplace",
        "label": "struct IdentityService.Identity",
        "members": [
          {
            "astId": 1227,
            "contract": "contracts/IdentityService.sol:IdentityService",
            "label": "username",
            "offset": 0,
            "slot": "0",
            "type": "t_string_storage"
          },
          {
            "astId": 1229,
            "contract": "contracts/IdentityService.sol:IdentityService",
            "label": "authKey",
            "offset": 0,
            "slot": "1",
            "type": "t_address"
          }
        ],
        "numberOfBytes": "64"
      }
    }
  }
}