{
  "address": "0xc78eE50401793f0a6e8b260C8EF1A693B208Fc65",
  "abi": [
    {
      "anonymous": false,
      "inputs": [
        {
          "indexed": true,
          "internalType": "bytes32",
          "name": "id",
          "type": "bytes32"
        },
        {
          "indexed": true,
          "internalType": "address",
          "name": "owner",
          "type": "address"
        },
        {
          "indexed": false,
          "internalType": "string",
          "name": "name",
          "type": "string"
        }
      ],
      "name": "Register",
      "type": "event"
    },
    {
      "anonymous": false,
      "inputs": [
        {
          "indexed": true,
          "internalType": "bytes32",
          "name": "id",
          "type": "bytes32"
        },
        {
          "indexed": true,
          "internalType": "address",
          "name": "oldOwner",
          "type": "address"
        },
        {
          "indexed": true,
          "internalType": "address",
          "name": "newOwner",
          "type": "address"
        }
      ],
      "name": "SetOwner",
      "type": "event"
    },
    {
      "inputs": [
        {
          "internalType": "bytes32",
          "name": "id",
          "type": "bytes32"
        },
        {
          "internalType": "address",
          "name": "operator",
          "type": "address"
        }
      ],
      "name": "authenticate",
      "outputs": [
        {
          "internalType": "bool",
          "name": "",
          "type": "bool"
        }
      ],
      "stateMutability": "view",
      "type": "function"
    },
    {
      "inputs": [
        {
          "internalType": "bytes32",
          "name": "id",
          "type": "bytes32"
        }
      ],
      "name": "name",
      "outputs": [
        {
          "internalType": "string",
          "name": "",
          "type": "string"
        }
      ],
      "stateMutability": "view",
      "type": "function"
    },
    {
      "inputs": [
        {
          "internalType": "bytes32",
          "name": "id",
          "type": "bytes32"
        }
      ],
      "name": "owner",
      "outputs": [
        {
          "internalType": "address",
          "name": "",
          "type": "address"
        }
      ],
      "stateMutability": "view",
      "type": "function"
    },
    {
      "inputs": [
        {
          "internalType": "string",
          "name": "name_",
          "type": "string"
        },
        {
          "internalType": "address",
          "name": "owner_",
          "type": "address"
        }
      ],
      "name": "register",
      "outputs": [],
      "stateMutability": "nonpayable",
      "type": "function"
    },
    {
      "inputs": [
        {
          "internalType": "bytes32",
          "name": "id",
          "type": "bytes32"
        },
        {
          "internalType": "address",
          "name": "newOwner",
          "type": "address"
        }
      ],
      "name": "setOwner",
      "outputs": [],
      "stateMutability": "nonpayable",
      "type": "function"
    }
  ],
  "transactionHash": "0xaa0d5c49a80460739c302bfa4cf1dd7375f4a29f0846a81f972f33741fc95531",
  "args": [],
  "numDeployments": 1,
  "solcInputHash": "d6a17c34c3ab74eb4680197c68a50aaf",
  "bytecode": "0x608060405234801561001057600080fd5b506106cc806100206000396000f3fe608060405234801561001057600080fd5b50600436106100575760003560e01c806302571be31461005c5780631e59c529146100855780635b0fc9c31461009a578063691f3431146100ad578063be98d55a146100cd575b600080fd5b61006f61006a3660046104e8565b6100f0565b60405161007c91906105de565b60405180910390f35b61009861009336600461052b565b61010e565b005b6100986100a8366004610500565b61025e565b6100c06100bb3660046104e8565b610320565b60405161007c91906105f2565b6100e06100db366004610500565b6103c2565b604051901515815260200161007c565b6000908152602081905260409020600101546001600160a01b031690565b60008260405160200161012191906105f2565b60405160208183030381529060405280519060200120905060006001600160a01b031661014d826100f0565b6001600160a01b0316146101b45760405162461bcd60e51b815260206004820152602360248201527f4964656e74697479536572766963653a20616c726561647920726567697374656044820152621c995960ea1b60648201526084015b60405180910390fd5b6040805180820182528481526001600160a01b03841660208083019190915260008481528082529290922081518051929391926101f49284920190610433565b5060209190910151600190910180546001600160a01b0319166001600160a01b039283161790556040519083169082907fa3f8ab5a398eae5d4e5b92373d1de9ebce1cb9fe46ac1d136dac922d456dff74906102519087906105f2565b60405180910390a3505050565b3380610269846100f0565b6001600160a01b0316146102bf5760405162461bcd60e51b815260206004820152601f60248201527f4964656e74697479536572766963653a206e6f7420617574686f72697a65640060448201526064016101ab565b60008381526020819052604080822060010180546001600160a01b0319166001600160a01b03868116918217909255915191929084169186917f8d75bf57b855566b2b2b71ec70276575bc8b4dc6d050ed2a5884ce3a32114fe091a4505050565b600081815260208190526040902080546060919061033d90610645565b80601f016020809104026020016040519081016040528092919081815260200182805461036990610645565b80156103b65780601f1061038b576101008083540402835291602001916103b6565b820191906000526020600020905b81548152906001019060200180831161039957829003601f168201915b50505050509050919050565b6000826103d7836001600160a01b0316610403565b14806103fc5750816001600160a01b03166103f1846100f0565b6001600160a01b0316145b9392505050565b60008160405160200161041691906105de565b604051602081830303815290604052805190602001209050919050565b82805461043f90610645565b90600052602060002090601f01602090048101928261046157600085556104a7565b82601f1061047a57805160ff19168380011785556104a7565b828001600101855582156104a7579182015b828111156104a757825182559160200191906001019061048c565b506104b39291506104b7565b5090565b5b808211156104b357600081556001016104b8565b80356001600160a01b03811681146104e357600080fd5b919050565b6000602082840312156104f9578081fd5b5035919050565b60008060408385031215610512578081fd5b82359150610522602084016104cc565b90509250929050565b6000806040838503121561053d578182fd5b82356001600160401b0380821115610553578384fd5b818501915085601f830112610566578384fd5b81358181111561057857610578610680565b604051601f8201601f19908116603f011681019083821181831017156105a0576105a0610680565b816040528281528860208487010111156105b8578687fd5b8260208601602083013786602084830101528096505050505050610522602084016104cc565b6001600160a01b0391909116815260200190565b6000602080835283518082850152825b8181101561061e57858101830151858201604001528201610602565b8181111561062f5783604083870101525b50601f01601f1916929092016040019392505050565b600181811c9082168061065957607f821691505b6020821081141561067a57634e487b7160e01b600052602260045260246000fd5b50919050565b634e487b7160e01b600052604160045260246000fdfea2646970667358221220be5dc4ab8e585645031dbd4eec08a38d35642751e8a574521a3f8140380ea84e64736f6c63430008040033",
  "devdoc": {
    "kind": "dev",
    "methods": {},
    "version": 1
  },
  "userdoc": {
    "kind": "user",
    "methods": {},
    "version": 1
  },
  "storageLayout": {
    "storage": [
      {
        "astId": 2314,
        "contract": "contracts/identity/UniversalNameService.sol:UniversalNameService",
        "label": "_identities",
        "offset": 0,
        "slot": "0",
        "type": "t_mapping(t_bytes32,t_struct(Identity)2237_storage)"
      }
    ],
    "types": {
      "t_address": {
        "encoding": "inplace",
        "label": "address",
        "numberOfBytes": "20"
      },
      "t_bytes32": {
        "encoding": "inplace",
        "label": "bytes32",
        "numberOfBytes": "32"
      },
      "t_mapping(t_bytes32,t_struct(Identity)2237_storage)": {
        "encoding": "mapping",
        "key": "t_bytes32",
        "label": "mapping(bytes32 => struct IUniversalNameService.Identity)",
        "numberOfBytes": "32",
        "value": "t_struct(Identity)2237_storage"
      },
      "t_string_storage": {
        "encoding": "bytes",
        "label": "string",
        "numberOfBytes": "32"
      },
      "t_struct(Identity)2237_storage": {
        "encoding": "inplace",
        "label": "struct IUniversalNameService.Identity",
        "members": [
          {
            "astId": 2234,
            "contract": "contracts/identity/UniversalNameService.sol:UniversalNameService",
            "label": "name",
            "offset": 0,
            "slot": "0",
            "type": "t_string_storage"
          },
          {
            "astId": 2236,
            "contract": "contracts/identity/UniversalNameService.sol:UniversalNameService",
            "label": "owner",
            "offset": 0,
            "slot": "1",
            "type": "t_address"
          }
        ],
        "numberOfBytes": "64"
      }
    }
  }
}