{
  "address": "0x5FbDB2315678afecb367f032d93F642f64180aa3",
  "abi": [
    {
      "anonymous": false,
      "inputs": [
        {
          "indexed": true,
          "internalType": "bytes32",
          "name": "node",
          "type": "bytes32"
        },
        {
          "indexed": false,
          "internalType": "string",
          "name": "name",
          "type": "string"
        }
      ],
      "name": "NameSet",
      "type": "event"
    },
    {
      "anonymous": false,
      "inputs": [
        {
          "indexed": true,
          "internalType": "bytes32",
          "name": "node",
          "type": "bytes32"
        },
        {
          "indexed": true,
          "internalType": "address",
          "name": "owner",
          "type": "address"
        }
      ],
      "name": "OwnerSet",
      "type": "event"
    },
    {
      "inputs": [
        {
          "internalType": "bytes32",
          "name": "node",
          "type": "bytes32"
        }
      ],
      "name": "name",
      "outputs": [
        {
          "internalType": "string",
          "name": "",
          "type": "string"
        }
      ],
      "stateMutability": "view",
      "type": "function"
    },
    {
      "inputs": [
        {
          "internalType": "bytes32",
          "name": "node",
          "type": "bytes32"
        }
      ],
      "name": "owner",
      "outputs": [
        {
          "internalType": "address",
          "name": "",
          "type": "address"
        }
      ],
      "stateMutability": "view",
      "type": "function"
    },
    {
      "inputs": [
        {
          "internalType": "string",
          "name": "name_",
          "type": "string"
        }
      ],
      "name": "setName",
      "outputs": [],
      "stateMutability": "nonpayable",
      "type": "function"
    },
    {
      "inputs": [
        {
          "internalType": "bytes32",
          "name": "node",
          "type": "bytes32"
        },
        {
          "internalType": "address",
          "name": "newOwner",
          "type": "address"
        }
      ],
      "name": "setOwner",
      "outputs": [],
      "stateMutability": "nonpayable",
      "type": "function"
    }
  ],
  "transactionHash": "0xdea54425e103ab7f4840d53389a75cfe60fe8d62863f803364c6f1dfdee5e9dc",
  "args": [],
  "numDeployments": 1,
  "solcInputHash": "a43760403bacec12923ae0cf7a8448e8",
  "bytecode": "0x608060405234801561001057600080fd5b506104b3806100206000396000f3fe608060405234801561001057600080fd5b506004361061004c5760003560e01c806302571be3146100515780635b0fc9c314610097578063691f3431146100ac578063c47f0027146100cc575b600080fd5b61007a61005f3660046102de565b6000908152602081905260409020546001600160a01b031690565b6040516001600160a01b0390911681526020015b60405180910390f35b6100aa6100a53660046102f6565b6100df565b005b6100bf6100ba3660046102de565b610138565b60405161008e91906103d9565b6100aa6100da366004610330565b6101dd565b60008281526020819052604080822080546001600160a01b0319166001600160a01b0385169081179091559051909184917fac803f2d7baf8977db614b92886816b923ee887c90ce5949164b63d8700f8ec49190a35050565b60008181526020819052604090206001018054606091906101589061042c565b80601f01602080910402602001604051908101604052809291908181526020018280546101849061042c565b80156101d15780601f106101a6576101008083540402835291602001916101d1565b820191906000526020600020905b8154815290600101906020018083116101b457829003601f168201915b50505050509050919050565b8051602080830191822060008181529182905260409091208351919261020892600190920191610245565b50807fe38530d843fa2511473aff70d62f5163ffa6486d26a9a33e78036b23eeee9d028360405161023991906103d9565b60405180910390a25050565b8280546102519061042c565b90600052602060002090601f01602090048101928261027357600085556102b9565b82601f1061028c57805160ff19168380011785556102b9565b828001600101855582156102b9579182015b828111156102b957825182559160200191906001019061029e565b506102c59291506102c9565b5090565b5b808211156102c557600081556001016102ca565b6000602082840312156102ef578081fd5b5035919050565b60008060408385031215610308578081fd5b8235915060208301356001600160a01b0381168114610325578182fd5b809150509250929050565b600060208284031215610341578081fd5b81356001600160401b0380821115610357578283fd5b818401915084601f83011261036a578283fd5b81358181111561037c5761037c610467565b604051601f8201601f19908116603f011681019083821181831017156103a4576103a4610467565b816040528281528760208487010111156103bc578586fd5b826020860160208301379182016020019490945295945050505050565b6000602080835283518082850152825b81811015610405578581018301518582016040015282016103e9565b818111156104165783604083870101525b50601f01601f1916929092016040019392505050565b600181811c9082168061044057607f821691505b6020821081141561046157634e487b7160e01b600052602260045260246000fd5b50919050565b634e487b7160e01b600052604160045260246000fdfea264697066735822122029a37edaf954895b1b91422235189462f8624be8dd749793c9e4f528dd0f7f8964736f6c63430008040033",
  "devdoc": {
    "kind": "dev",
    "methods": {},
    "version": 1
  },
  "userdoc": {
    "kind": "user",
    "methods": {},
    "version": 1
  },
  "storageLayout": {
    "storage": [
      {
        "astId": 3992,
        "contract": "contracts/identity/UniversalNameService.sol:UniversalNameService",
        "label": "_names",
        "offset": 0,
        "slot": "0",
        "type": "t_mapping(t_bytes32,t_struct(Name)3987_storage)"
      }
    ],
    "types": {
      "t_address": {
        "encoding": "inplace",
        "label": "address",
        "numberOfBytes": "20"
      },
      "t_bytes32": {
        "encoding": "inplace",
        "label": "bytes32",
        "numberOfBytes": "32"
      },
      "t_mapping(t_bytes32,t_struct(Name)3987_storage)": {
        "encoding": "mapping",
        "key": "t_bytes32",
        "label": "mapping(bytes32 => struct UniversalNameService.Name)",
        "numberOfBytes": "32",
        "value": "t_struct(Name)3987_storage"
      },
      "t_string_storage": {
        "encoding": "bytes",
        "label": "string",
        "numberOfBytes": "32"
      },
      "t_struct(Name)3987_storage": {
        "encoding": "inplace",
        "label": "struct UniversalNameService.Name",
        "members": [
          {
            "astId": 3984,
            "contract": "contracts/identity/UniversalNameService.sol:UniversalNameService",
            "label": "owner",
            "offset": 0,
            "slot": "0",
            "type": "t_address"
          },
          {
            "astId": 3986,
            "contract": "contracts/identity/UniversalNameService.sol:UniversalNameService",
            "label": "name",
            "offset": 0,
            "slot": "1",
            "type": "t_string_storage"
          }
        ],
        "numberOfBytes": "64"
      }
    }
  }
}